:020000040800F2
:10000000782300204D02000815240008F51F000881
:100010001124000839070008D14A00080000000038
:100020000000000000000000000000008926000819
:10003000B507000800000000872600088B2600088E
:1000400067020008670200086702000867020008EC
:1000500067020008670200086702000867020008DC
:1000600067020008670200086702000867020008CC
:1000700067020008670200086702000867020008BC
:10008000670200086702000867020008000000001D
:1000900000000000000000000000000067020008EF
:1000A000670200086702000867020008670200088C
:1000B000670200086702000867020008670200087C
:1000C000670200086702000867020008670200086C
:1000D00067020008670200086702000800000000CD
:1000E00067020008670200086702000800000000BD
:1000F000000000000000000000000000670200088F
:10010000000000006702000867020008670200089C
:1001100000000000000000000000000000000000DF
:10012000670200086702000867020008670200080B
:10013000670200080000000000000000000000004E
:10014000000000000000000000000000192400086A
:1001500067020008670200086702000867020008DB
:1001600067020008670200080000000000000000AD
:10017000000000000000000000000000000000007F
:1001800000000000670200080000000000000000FE
:10019000670200086702000800F002F800F047F864
:1001A0000AA090E8000C82448344AAF10107DA45D2
:1001B00001D100F03CF8AFF2090EBAE80F0013F0DD
:1001C000010F18BFFB1A43F001031847C04C000091
:1001D000E04C0000103A24BF78C878C1FAD8520722
:1001E00024BF30C830C144BF04680C6070470000B1
:1001F0000023002400250026103A28BF78C1FBD830
:10020000520728BF30C148BF0B607047642900F017
:100210001F81752900F01C81732900F028820020BD
:1002200070471FB504F0F4FD1FBD10B510BD00F000
:1002300051FA1146FFF7F5FF04F0AAFD00F06FFA3E
:1002400003B4FFF7F2FF03BC04F060FC09488047E9
:1002500009480047FEE7FEE7FEE7FEE7FEE7FEE7A8
:10026000FEE7FEE7FEE7FEE704480549054A064BC0
:10027000704700004527000899010008781D0020FC
:1002800078230020781F0020781F0020704753EA51
:10029000020C00F069802DE9F04B4FF00006002BB6
:1002A0001FBFB3FA83F503FA05F424FA05F65E409E
:1002B00012BF1643B2FA82F502FA05F4C5F1200521
:1002C0001EBF22FA05FC44EA0C04203556EA044C11
:1002D0004FEA144418BF641C4FF000084FF00009A7
:1002E000904271EB030C39D3002919BFB1FA81F7A1
:1002F00001FA07F6B0FA80F700FA07F6C7F120070F
:100300001EBF20FA07FC46EA0C062037B6FBF4FCB9
:10031000A7EB0507103F07F01F0BCBF120060CFAE7
:100320000BFB2CFA06F644BFB3460026202FA4BFD1
:100330005E464FF0000B5BEA060C08BF4FF0010B66
:1003400019EB0B09ABFB027C48EB0608C01B06FB54
:1003500002CC0BFB03CC71EB0C01C1E70B46024650
:1003600041464846BDE8F08B13B54FF000004FF012
:100370000001AFF30080BDE81C4070470FB4044992
:1003800010B503AA029800F077F910BC5DF814FBD1
:10039000040000202DE9F0410E46044600202062B2
:1003A0002046E168884730B3252805D0D4E90121EB
:1003B0009047206A401CF2E7E16820460027884702
:1003C000050018D0A5F14100192802D820354FF4B6
:1003D00000673246294620462760FFF717FF40B1E5
:1003E000012804D0F61D26F007060836D8E7361D8A
:1003F000D6E72846DAE7206ABDE8F08170B50C46FA
:100400000546012A05D02878800600D5EA69002330
:1004100002E0012305E05B1C934202D2E05C00286D
:10042000F9D1A869E618C01AA861286A1844286298
:100430002846AFF3008004E0D5E9012114F8010B50
:100440009047B442F8D32846AFF3008070BD000057
:100450002DE9F0410646002410687529314616A59D
:1004600010D0AFF30080002802DA404213A507E065
:1004700031688A0701D512A502E0490704D511A504
:10048000012401E0AFF3008000210A2206F12407D5
:1004900009E0B0FBF2FCB0FBF2F302FB1C003030D1
:1004A00078541846491C0028F3D123462A46304682
:1004B000BDE8F04100F070B8000000002D00000021
:1004C0002B000000200000000022CBB210F8011B1E
:1004D000994200D1421E0029F8D11046704710B54C
:1004E000203AC0F00B80B1E81850203AA0E818502C
:1004F000B1E81850A0E81850BFF4F5AF5FEA027CED
:1005000024BFB1E81850A0E8185044BF18C918C05B
:10051000BDE810405FEA827C24BF51F8043B40F8FC
:10052000043B08BF7047D20728BF31F8023B48BFE1
:1005300011F8012B28BF20F8023B48BF00F8012B1F
:1005400070474FF0000200B5134694469646203996
:1005500022BFA0E80C50A0E80C50B1F12001BFF47C
:10056000F7AF090728BFA0E80C5048BF0CC05DF8E2
:1005700004EB890028BF40F8042B08BF704748BF30
:1005800020F8022B11F0804F18BF00F8012B7047A4
:1005900070477047704770472DE9F0470D46994600
:1005A0009246044600F124080168880604D5E069F3
:1005B00021F01001216000E00120A84201DD471B6D
:1005C00000E00027A1697A1902EB0900081AA0616E
:1005D0002078C00602D42046AFF30080002608E051
:1005E000D4E901211AF806009047206A401C761CC5
:1005F00020624E45F4DB2078C0060AD52046AFF3D2
:10060000008006E0D4E9012130209047206A401C98
:100610002062381EA7F10107F4DC07E0D4E90121CC
:1006200018F805009047206A401C2062281EA5F19A
:100630000105F3DC2046AFF300802078000602D5E8
:100640000220BDE8F0870120FBE710B5436913B134
:10065000AFF3008001E0FFF7D1FE012010BD12785A
:1006600000F124010A7000224A700122EDE71168AE
:100670004FF0FF32E9E70000074B70B50D467B44B1
:1006800000F011F80446284600F020F810B14FF0B1
:10069000FF3070BD204670BDCF44000001694A1C88
:1006A00002610878704700B58FB0CDE901310021B3
:1006B000059105497944CDE9031011466846FFF7D5
:1006C00069FE0FB000BD0000E5FFFFFF007B00F0FA
:1006D00080007047754600F02BF8AE46050069466D
:1006E000534620F00700854618B020B5FFF7BCFD43
:1006F000BDE820404FF000064FF000074FF0000823
:100700004FF0000B21F00701AC46ACE8C009ACE8A3
:10071000C009ACE8C009ACE8C0098D46704710B507
:100720000446AFF300802046BDE81040FFF788BDC7
:1007300000487047141D002000BFFEE704284FF05A
:10074000000070470020704710B50022044905489A
:1007500002F018FA0449034802F006FA002010BD1E
:10076000100E0020340100201006002010B50146B4
:10077000034802F0F9F9024802F0C6F9002010BD62
:10078000340100200020704710B50A460849D1F80E
:10079000BC12D1F81412002901D0012010BD01466D
:1007A000034802F0EFF9BDE81040014802F082BAB8
:1007B00034010020704772B600BFFEE770B50B48E9
:1007C0000168001D0568001D0068084400280CD061
:1007D000074C0822A11C01F00FFC04F1120128466D
:1007E000BDE87040042201F007BC70BD107AFF1F05
:1007F0004C00002070B5044600F002F9064625467C
:10080000681C10B104480078054400BF00F0F8F8F7
:10081000801BA842FAD370BD10000020F8B5024634
:100820000B460025002400200021C7E0012606FA1F
:1008300001F51E6806EA0504AC4274D11E7906F083
:100840000306012E04D01E7906F00306022E13D1F2
:1008500090684F000326BE40B0434F00DE68BE40A4
:1008600030439060506801268E40B0431E79C6F335
:1008700000168E40304350601E7906F00306032EAA
:1008800009D0D0684F000326BE40B0434F009E6899
:10089000BE403043D0601E7906F00306022E13D10D
:1008A000CF0802F1200656F827004E07F70E0F2654
:1008B000BE40B0434F07FF0E1E69BE403043CF0815
:1008C00002F1200646F8270010684F000326BE40BC
:1008D000B0431E7906F003064F00BE40304310605F
:1008E0005E6806F44036002E67D000BF00260096F2
:1008F000344E366846F48046324F3E603E46366897
:1009000006F48046009600BF00BF2F4E8F0856F8B1
:1009100027008E07370F0F26BE40B0432B4EB24242
:1009200002D1002615E048E0294EB24201D101264D
:100930000FE0284EB24201D102260AE0264EB24212
:1009400001D1032605E0254EB24201D1042600E084
:1009500007268F073F0FBE4030431B4E8F0846F8D7
:1009600027001F4E3068A0435E6806F4801606B16B
:1009700020431B4E3060361D3068A0435E6806F48D
:10098000001606B12043164E361D3060144E361F39
:100990003068A0435E6806F4003606B12043104E6E
:1009A000361F3060361F3068A0435E6806F480361C
:1009B00006B120430A4E083E3060491C1029FFF45E
:1009C00035AFF8BD4438024008380140000002400D
:1009D0000004024000080240000C024000100240E7
:1009E000083C0140024613690B400BB1012000E0B6
:1009F000002070470AB1816101E00B0483617047F8
:100A000001480068704700000800002003480068A3
:100A1000034909780844014908607047080000202C
:100A20001000002010B50D48006840F400700B491C
:100A300008600846006840F4806008600846006866
:100A400040F480700860032000F0A6F80F2000F04A
:100A500007F800F02BF8002010BD0000003C024019
:100A600070B504460E4800784FF47A71B1FBF0F08F
:100A70000C490968B1FBF0F5284601F0A1FA08B16C
:100A8000012070BD102C07D200222146501E00F01C
:100A900045F80548046001E00120F2E70020F0E796
:100AA00010000020140000200C00002008B500BF3A
:100AB000002000900E48006840F480400C49086017
:100AC0000846006800F48040009000BF00BF00BFEF
:100AD00000200090081F006840F08050091F086047
:100AE0000846006800F08050009000BF00BF08BDBD
:100AF000443802400146084600280DDB00BF00BF15
:100B000000F01F0301229A4043099B0003F1E023F8
:100B1000C3F8002100BF00BF00BF70472DE9F05FA0
:100B200080460D461646002703F0D4FF0746394697
:100B30002A46334601F00700C0F1070ABAF1040F54
:100B400002D94FF0040A01E0C0F1070AD14600F1D2
:100B5000040ABAF1070F02D24FF0000A01E0A0F137
:100B6000030AD4464FF0010A0AFA09FAAAF1010A67
:100B70000AEA020A0AFA0CFA4FF0010B0BFA0CFB14
:100B8000ABF1010B0BEA030B4AEA0B04214640468A
:100B900003F0A8FFBDE8F09F00BF00F00702064B7E
:100BA00019684FF6FF031940044B0B4343EA022137
:100BB000014B196000BF70470CED00E00000FA0522
:100BC000704702461068416200207047F0B5034646
:100BD00015461868446A21B944EA05401E68B062A7
:100BE00019E01868806A04EB1044002208E01868D5
:100BF00000F5827050F8220004EB1044501CC2B281
:100C0000481E9042F3D844EA0547186800F5827000
:100C10004E1E40F826700020F0BDD0F8E00402F02F
:100C2000DCBB01EBC10200EB8202D0F8E004126AE7
:100C300002F0FABA01EBC10200EB8202D0F8E00444
:100C4000D2F8602202F061BBD0F8E00402F0C7BB2A
:100C50002DE9F04104460D4605F08000802808D1BA
:100C600005F00F0000EBC00104F1140000EB810659
:100C700007E005F00F0000EBC00104F5157000EB74
:100C800081063146206803F0E5FC07463846BDE89A
:100C9000F08170B504460E4606F0800080280AD127
:100CA00006F00F0000EBC00104F1140000EB810519
:100CB0000120687009E006F00F0000EBC00104F5A8
:100CC000157000EB81050020687006F00F00287099
:100CD00000BF94F89404012801D1022070BD0120C6
:100CE00084F8940400BF2946206803F041F800BF4F
:100CF000002084F8940400BF00BFEFE770B50446FD
:100D00000E4606F00F002179884201D9012070BDFE
:100D100006F0800080280AD106F00F0000EBC00129
:100D200004F1140000EB81050120687009E006F071
:100D30000F0000EBC00104F5157000EB81050020E9
:100D400068700020A87006F00F00287000BF94F8AB
:100D50009404012801D10220D9E7012084F89404E9
:100D600000BF2946206803F001FA00BF002084F884
:100D7000940400BF00BFCAE7024601F00F0000EB79
:100D8000C00302F5157000EB8300406970472DE940
:100D9000F04705460E4690461F464FF0000906F004
:100DA000800080280AD106F00F0000EBC00105F199
:100DB000140000EB81040120607009E006F00F00D0
:100DC00000EBC00105F5157000EB81040020607098
:100DD00006F00F002070C8F30A00A0602771607849
:100DE00008B120786083022F01D10020607100BF1C
:100DF00095F89404012802D10220BDE8F087012073
:100E000085F8940400BF2146286802F0BDFE00BFAB
:100E1000002085F8940400BF4846EEE72DE9F04134
:100E200005460E461746984606F00F0000EBC00137
:100E300005F5157000EB8104E760C4F81080002010
:100E40006061607006F00F002070A879012800D161
:100E5000E761AA792146286803F01CFA0020BDE862
:100E6000F08170B504460D4605F00F0021798842E7
:100E700001D9012070BD05F0800080280AD105F05D
:100E80000F0000EBC00104F1140000EB810601200B
:100E9000707007E005EBC50104F5157000EB8106E5
:100EA000002070700120B07005F00F00307000BF9E
:100EB00094F89404012801D10220DBE7012084F892
:100EC000940400BF3146206803F097F905F00F0045
:100ED00028B9A17904F29C42206803F00FF900BF01
:100EE000002084F8940400BF00BFC3E72DE9F0415F
:100EF00005460E461746984606F00F0000EBC00167
:100F000005F1140000EB8104E760C4F810800020B4
:100F100060610120607006F00F002070A879012840
:100F200000D1E761AA792146286803F0B3F90020CF
:100F3000BDE8F0812DE9FE4F0446D4F800B05E46CE
:100F4000206803F069FC002874D1206803F0A3FC3A
:100F500008B9BDE8FE8F40F608008059C0F30D20A7
:100F6000C4F8D404206803F096FC00F002000228C4
:100F700005D12068406900F00200216848612068BE
:100F800003F089FC00F01000102845D1206880692A
:100F900020F0100021688861DBF8209009F00F0034
:100FA00000EBC00104F5157000EB810AC9F3434062
:100FB00002281AD147F6F07009EA000030B3C9F3ED
:100FC0000A125846DAF80C1003F06AFCC9F30A1149
:100FD000DAF80C000844CAF80C00C9F30A11DAF870
:100FE00014000844CAF8140010E0C9F3434006286E
:100FF0000CD1082204F29C41584603F051FCC9F37D
:101000000A11DAF814000844CAF81400206880694C
:1010100040F0100021688861206803F03CFC00F477
:101020000020B0F5002F7BD10025206803F003FCE1
:10103000029072E0E1E2029800F00100002868D01E
:10104000E9B2206803F01AFC804608F0010048B1BC
:10105000012106F5306000EB4510816029462046ED
:1010600001F014FA08F00800082809D1082106F553
:10107000306000EB451081602946204601F0D4F92C
:1010800008F01000102805D1102106F5306000EBA3
:101090004510816008F00200022824D1DBF814001A
:1010A00000F08000802807D140F60400805940F409
:1010B000806140F60400815105EBC50104F515700F
:1010C00000EB810A9AF80300012806D100208AF873
:1010D0000300E9B2204600F096FA022106F53060DE
:1010E00000EB4510816008F02000202805D1202168
:1010F00006F5306000EB4510816008F40050B0F553
:10110000005F06D14FF4005106F5306000EB45104A
:1011100081606D1C029840080290029800288AD1D4
:10112000206803F0B8FB00F48020B0F5802F7DD15B
:10113000206803F076FB029000259AE0029800F008
:101140000100002873D0E9B2206803F07EFB8046DE
:1011500008F00100F0B305F00F0101208840019074
:1011600040F634008159019821EA000040F634012C
:101170008851012106F5106000EB45108160A079CF
:10118000012824D105EBC50104F1140000EB810016
:1011900005EBC502C16804F1140000EB8200806811
:1011A000014405EBC50204F1140000EB8200C160AC
:1011B0006DB905EBC50104F1140000EB8100006975
:1011C00028B904F29C420121206802F097FFE9B29D
:1011D000204600E001E0FFF724FD08F008000828A1
:1011E00005D1082106F5106000EB4510816008F07C
:1011F0001000102805D1102106F5106000EB4510F5
:10120000816008F04000402805D1402106F51060BB
:1012100000EB4510816008F0020002281DD129462C
:10122000584603F0BCFA05EBC50101E025E01CE0DF
:1012300004F1140000EB810A9AF80300012806D19A
:1012400000208AF80300E9B2204600F0D8F9022114
:1012500006F5106000EB4510816008F080008028E2
:1012600003D12946204601F0B3F96D1C02984008CD
:101270000290029800287FF461AF206803F00BFB16
:1012800000F00040B0F1004F1CD140F6040080593E
:1012900020F0010140F60400815194F8CC040128AB
:1012A00007D1002084F8CC0400212046FFF788FCF9
:1012B00002E0204600F0AFFA2068406900F00040EC
:1012C00021684861206803F0E6FA00F40060B0F598
:1012D000006F0ED140F60800805900F0010010B1F7
:1012E000204600F0E7FA2068406900F400602168B9
:1012F0004861206803F0CFFA00F48050B0F5805FB9
:101300007ED140F60400805920F0010140F604002F
:1013100081511021206803F042FA002732E04FF695
:101320007F3106F5106000EB4710816006F5106014
:1013300000EB4710006820F4001106F5106000EB88
:10134000471001604FF67F3106F5306000EB471023
:10135000816006F5306000EB4710006820F4001152
:1013600006F5306000EB4710016006F5306000EBD9
:101370004710006840F0006106F5306000EB471050
:1013800001607F1C2079B842C9D840F61C00805902
:1013900040F0011140F61C008151E07B70B1D6F89D
:1013A000840840F00B01C6F8841840F644008059C8
:1013B00040F00B0140F6440081510FE040F614006C
:1013C000805942F22B01084340F614018851081F4E
:1013D000805940F00B014FF401608151D6F80008AC
:1013E00020F4FE60C6F80008A17904F29C4220684F
:1013F00002F084FE2068406900F48050216800E01B
:1014000000E04861206803F046FA00F40050B0F5AF
:10141000005F17D1206802F01FFC206803F0E9F993
:10142000E07100F021FB0090E2792068009903F060
:10143000B9FA204600F0DCF92068406900F4005059
:1014400021684861206803F026FA00F008000828A7
:1014500008D1204600F0E3F92068406900F0080058
:1014600021684861206803F016FA00F080008028A7
:1014700018D1DBF8180020F08000CBF81800012507
:101480000DE005EBC50104F5157000EB8100C07897
:10149000012803D1E9B22046FFF7DAFB6D1C207961
:1014A000A842EED8206803F0F6F900F48010B0F5F9
:1014B000801F2DD1012522E006F5106000EB4510BC
:1014C000D0F8009005EBC50104F1140000EB810099
:1014D0000079012812D109F00040B0F1004F0DD180
:1014E000012105EBC50204F1140000EB8200C1707C
:1014F000E8B240F080012046FFF7AAFB6D1C20797E
:10150000A842D9D82068406900F480102168486159
:10151000206803F0C0F900F40010B0F5001F44D1BA
:10152000012538E006F5306000EB4510D0F800905A
:1015300005EBC50104F5157000EB81000079012869
:1015400028D109F00040B0F1004F23D194F8D40421
:1015500000F00100C9F3004188421BD1012105EBD5
:10156000C50204F5157000EB8200C170DBF81800AD
:1015700040F08000CBF81800DBF8140000F0800089
:1015800040B940F60400805940F4007140F6040070
:10159000815103E06D1C2079A842C3D800BF2068A8
:1015A000406900F4001021684861206803F073F975
:1015B00000F08040B0F1804F08D12046FFF72DFBAE
:1015C0002068406900F0804021684861206803F08D
:1015D00062F900F0040004280FD12068D0F80490CC
:1015E00009F00400042802D12046FFF72DFB2068F3
:1015F000406840EA09002168486000BFA9E4D0F8CB
:10160000E00401F041BFD0F8E00401F052BFF8B5AA
:1016100004460CB90120F8BD266894F8950428B951
:10162000002084F89404204600F0A0F8032084F8F9
:101630009504B6F1A04F01D10021A171206802F0FC
:1016400055FD207C8DF8000094E80F0002F018FB97
:1016500020B1022084F895040120DCE700212068F5
:1016600003F04EF920B1022084F895040120D2E75E
:10167000002531E0012105EBC50204F1140000EB67
:101680008200417005EBC50104F1140000F82150FF
:1016900005EBC50100EB81004583002105EBC50288
:1016A00004F1140000EB8200017105EBC50204F1A6
:1016B000140000EB8200816005EBC50204F1140008
:1016C00000EB8200C16005EBC50204F1140000EBE1
:1016D00082000161681CC5B22079A842CADC0025DD
:1016E0002AE0002105EBC50204F5157000EB82002D
:1016F000417005EBC50104F5157000F8215000217B
:1017000005EBC50200EB8200017105EBC50204F593
:10171000157000EB8200816005EBC50204F51570C1
:1017200000EB8200C16005EBC50204F5157000EB0B
:1017300082000161681CC5B22079A842D1DC207CFE
:101740008DF8000094E80F0002F0DCFB20B10220CD
:1017500084F8950401205EE700206074012084F87D
:101760009504206802F0BCFB002054E700B587B068
:101770000021029103910491059106910068B0F156
:10178000A04F2BD11648016841F0010101600068AB
:1017900000F0010001904FF4C0500290022003902D
:1017A000032005900A20069002A90E48FFF736F89C
:1017B0000D48016841F0800101600C48016841F466
:1017C00080410160006800F48040019000221146D1
:1017D0004320FFF7A3F94320FFF78CF907B000BDC2
:1017E00030380240000002403438024044380240A1
:1017F00070B504460125E079022801D0FEF7DBFF31
:101800002946D4F8E00401F0C6FED4F8E004BDE8AF
:10181000704001F078BED0F8E00401F0A5BED0F829
:10182000E00401F0ABBE70B504460D4600BF94F86D
:101830009404012801D1022070BD012084F8940491
:1018400000BF65742946206803F08EF800BF0020B1
:1018500084F8940400BF00BFEEE7D0F8E02400F263
:101860009C41104601F0A3BE70B50446256800BF38
:1018700094F89404012801D1022070BD012084F85D
:10188000940400BFE86800F0400030B1607B01289C
:1018900003D1A86B40F48030A863206802F050FFA9
:1018A000206802F00BFB00BF002084F8940400BF06
:1018B00000BFE2E710B50446D4F8E00401F0BBFE37
:1018C0002068D0F8001E41F00101C0F8001EE07A47
:1018D000002804D00248016841F00601016010BDF3
:1018E00010ED00E070B504460D460CB9012070BD46
:1018F0005848006800F00700A84209D255490D7009
:101900000846006800F00700A84201D00120EEE779
:10191000207800F0020002281DD1207800F0040099
:10192000042805D14C48006840F4E0504A4908605A
:10193000207800F00800082805D14748006840F4E6
:101940006040454908604448006820F0F000A16804
:10195000084341490860207800F00100A8B360689E
:10196000012807D13C4808380068C0F34040B8B9A6
:101970000120BCE76068022802D06068032807D114
:10198000354808380068C0F3406048B90120AEE728
:10199000314808380068C0F3400008B90120A6E7C4
:1019A0002D48006820F00300616808432A49086058
:1019B000FFF726F8064609E0FFF722F8801B41F200
:1019C0008831884202D9032091E707E02248006865
:1019D00000F00C006168B0EB810FEDD11D4800688C
:1019E00000F00700A84209D91A490D70084600689E
:1019F00000F00700A84201D0012078E7207800F02D
:101A00000400042807D11448006820F4E050E1687D
:101A1000084311490860207800F00800082808D120
:101A20000D48006820F46040216940EAC1000A497D
:101A3000086000F01FF808490968C1F30311074A5C
:101A4000515CC8400649086006480068FFF708F87E
:101A500000204CE7003C0240083802402C4E0008B1
:101A6000140000200C0000200148006870470000AE
:101A7000140000202DE9F047002400250026A1468F
:101A80002548006800F00C0020B1042805D0082883
:101A90003AD105E0DFF8849039E0DFF8849036E051
:101AA0001D48001F006800F03F041B48001F00682D
:101AB00000F4800078B11A481749091F0968C1F37A
:101AC0008811A0FB01700146224600233846FEF72C
:101AD000DEFB05460EE011480F49091F0968C1F3F6
:101AE0008811A0FB01700146224600233846FEF70C
:101AF000CEFB05460848001F0068C0F30140401CAB
:101B00004600B5FBF6F902E0DFF8109000BF00BF19
:101B10004846BDE8F0870000083802400024F40081
:101B200040787D01F8B504460CB90120F8BD207855
:101B300000F00100002874D0F948006800F00C00A3
:101B400004280DD0F648006800F00C00082813D1D6
:101B5000F348001F006800F48000B0F5800F0BD13F
:101B6000EF4808380068C0F34040002859D060684A
:101B7000002856D10120D9E700BF6068B0F5803F4A
:101B800008D1E7480838006840F48030E449083953
:101B900008601EE06068B0F5A02F0DD1E04808385D
:101BA000006840F48020DE49083908600846006873
:101BB00040F4803008600CE0D9480838006820F410
:101BC0008030D749083908600846006820F4802032
:101BD000086000BF606890B1FEF712FF054606E09E
:101BE000FEF70EFF401B642801D903209EE7CC4876
:101BF00008380068C0F340400028F1D011E0FEF73B
:101C0000FFFE054606E0FEF7FBFE401B642801D9F7
:101C100003208BE7C24808380068C0F34040002822
:101C2000F1D1207800F0020002285FD1BC480068A2
:101C300000F00C0058B1BA48006800F00C00082809
:101C40001CD1B748001F006800F48000B0B9B44848
:101C500008380068C0F3400020B1E068012801D0D6
:101C6000012063E7AE480838006820F0F8002169D9
:101C700040EAC100AA490839086037E0E06800B3CB
:101C80000120A8490860FEF7BBFE054606E0FEF706
:101C9000B7FE401B022801D9032047E7A0480838B7
:101CA0000068C0F340000028F1D09D480838006863
:101CB00020F0F800216940EAC1009949083908601C
:101CC00014E0002097490860FEF79AFE054606E0FA
:101CD000FEF796FE401B022801D9032026E7904814
:101CE00008380068C0F340000028F1D1207800F0E7
:101CF000080008282CD16069A8B101208A49086031
:101D0000FEF77EFE054606E0FEF77AFE401B02283F
:101D100001D903200AE782486C300068C0F3400014
:101D20000028F1D014E000207F490860FEF768FE2B
:101D3000054606E0FEF764FE401B022801D9032099
:101D4000F4E677486C300068C0F340000028F1D119
:101D5000207800F00400042870D100277048383043
:101D6000006800F0805090B900BF002000906C48DF
:101D70003830006840F080506949383108600846C2
:101D8000006800F08050009000BF00BF0127674846
:101D9000006800F48070B0B96448006840F4807056
:101DA00062490860FEF72CFE054606E0FEF728FEB5
:101DB000401B022801D90320B8E65C48006800F403
:101DC00080700028F2D000BFA068012808D15448D4
:101DD0006830006840F001005149683108601DE03A
:101DE000A06805280DD14E486830006840F0040016
:101DF0004B49683108600846006840F001000860FF
:101E00000CE047486830006820F001004449683120
:101E100008600846006820F00400086000BFA06861
:101E2000A8B1FEF7EDFD054609E0FEF7E9FD401B10
:101E300041F28831884202D9032077E626E038480B
:101E400068300068C0F340000028EED013E0FEF7D1
:101E5000D7FD054608E0FEF7D3FD401B41F288316F
:101E6000884201D9032061E62D4868300068C0F33C
:101E700040000028EFD1012F07D1294838300068F1
:101E800020F0805026493831086000BFA069002842
:101E900045D02348006800F00C0008285DD0A069F8
:101EA000022845D100201F490866FEF7A9FD054616
:101EB00006E0FEF7A5FD401B022801D9032035E608
:101EC000174808380068C0F340600028F1D1D4E911
:101ED00007010843616A40EA81110122A06AC2EB4E
:101EE000500041EA00412C20005D41EA00600C49AD
:101EF000091F086001200B490866FEF781FD0546B1
:101F000006E0FEF77DFD401B022801D903200DE607
:101F1000034808380068C0F340600028F1D049E069
:101F20000838024000004742800E474200700040DF
:101F3000002021490866FEF763FD054606E0FEF72E
:101F40005FFD401B022801D90320EFE51B48006814
:101F5000C0F340600028F2D12CE0A069012800D134
:101F6000E4E51648001D0668A069012820D006F4A3
:101F70008001E06981421BD106F03F01206A814265
:101F800016D147F6C0703040616AB0EB811F0FD1A7
:101F900006F440310122A06AC2EB5000B1EB004FC1
:101FA00006D106F070612C20005DB1EB006F01D00E
:101FB0000120BBE50020B9E500004742003802409F
:101FC00070B504462546681EB0F1807F01D301201C
:101FD0000FE0681E4FF0E02148610F214FF0FF3005
:101FE00002F080FD00204FF0E021886107200861A9
:101FF000002070BD00BFFEE7F0B40023002A18D90E
:102000000A24302537269C46B4EB107F04D905EB13
:10201000107701F8137003E006EB107701F81370E6
:10202000000101EB430787F801C05B1CDBB2934260
:10203000EAD3F0BC7047000070B586B006460C4687
:1020400015468DF8044000208DF805000A20029006
:1020500000200390049504480590142201A93046FD
:10206000FEF73DFA06B070BDFD20000870B50446CD
:102070000D46607805283ED2DFE800F00337261EC3
:102080000C00207821698847012802D1A56004202E
:10209000607031E0207821698847012809D12846FD
:1020A000A16802F066FD6168884204D9032060706F
:1020B00001E0002060701FE020782169884710B996
:1020C000A5600220607017E020782169884748B930
:1020D0002846A16802F04DFD6168884204D90120BC
:1020E000607001E00320607006E02078E1688847B6
:1020F0000020607000E000BF00BF70BD70B50446F6
:10210000012C01DB022070BD0025124800EBC40049
:10211000807970B90F4A02EBC40291880D4A52F8D7
:102120003400FEF75FFC08B9012000E000200546FE
:102130000DE0084A02EBC4029188064A52F83400C6
:10214000FEF750FC012800D100E00020054628469B
:10215000D9E70000244E0008002001E0411CC8B26D
:102160000128FBDB704730B585B005460C460120E1
:102170008DF8010000208DF802000190029003907C
:1021800004908DF80040142269462846FEF7A7F90E
:1021900005B030BD70B504460D4604B970BD607819
:1021A000012806D002280CD0032813D0042854D1CB
:1021B00040E02078002100F083F80020A0706070DB
:1021C0004CE02078012100F07BF80120A070002075
:1021D000607043E0A078012809D0A07838B1207859
:1021E000012100F06DF865600120A07021E0A07869
:1021F00070B92846A16802F0B9FC2169884218D359
:102200002078012100F05CF865600120A07010E0EA
:10221000A07801280DD12846616802F0A7FCE1688A
:10222000884206D32078002100F04AF8A5600020FB
:10223000A07013E0A078012806D12078002100F0DA
:102240003FF80020A07005E02078012100F038F868
:102250000120A0700020607000E000BF00BF00BF40
:102260009CE700B9704701B102B9FBE74378032B43
:1022700006D1C3688B4203D10369934200D1F1E7D1
:102280000323437002238370002343608360C16093
:10229000026100BFE6E700B97047012141700021EB
:1022A000817000BFF8E710B5002405E0002120464A
:1022B00000F006F8601CC4B2012CF7DB10BD000072
:1022C00070B504460D46012C00DB70BD0E4800EBD6
:1022D000C400807930B9012D01D0012000E0002038
:1022E000064605E0012D01D1012000E00020064650
:1022F000054A02EBC4029188034A52F83400324680
:10230000FEF778FB00BFE0E71C4E000800B587B081
:10231000142102A8FEF715F900BF002001902448FF
:10232000006840F00400224908600846006800F098
:102330000400019000BF00BF00BF002001900846CC
:10234000006840F0800008600846006800F08000E7
:10235000019000BF00BF00BF002001900846006848
:1023600040F0010008600846006800F0010001909C
:1023700000BF00BF012251030E48FEF73BFB4FF4A4
:10238000005002900120039004900020059002A9C3
:102390000848FEF743FA0120029000200390012034
:1023A000049002A90448FEF739FA07B000BD000006
:1023B00030380240000802400000024010B5002200
:1023C0000F49104800F00AFF08B1FEF7F4F90E4972
:1023D0000C4801F05FF908B1FEF7EDF90B49094827
:1023E00000F0B6FB08B1FEF7E6F9064801F028FA5E
:1023F000002803D0BDE81040FEF7DDB910BD000095
:102400001800002034010020D400002068000020C3
:1024100000BFFEE700BFFEE710B50248FEF78AFDE9
:1024200010BD0000301800202DE9F04704460D468D
:1024300026683746D6F8408007F5306000EB451037
:10244000D0F80890104880450BD909F40040B0F549
:10245000004F06D14FF4004107F5306000EB451006
:1024600081602046FFF7F9F90748804508D9A0792F
:10247000012805D104F29C420121206801F03EFEB2
:102480000020BDE8F08700000A30544F2DE9F047E6
:1024900005460C46D5F800904E46D9F840A006F502
:1024A000306000EB4410D0F80880A879012855D19D
:1024B00008F0080008280FD1434882450BD908F4DA
:1024C0000040B0F5004F7BD14FF4004106F530607D
:1024D00000EB4410816073E008F02000202806D152
:1024E000202106F5306000EB4410816068E008F0C0
:1024F0002800002864D1344882450CD908F40040F3
:10250000B0F5004F07D14FF4004106F5306000EB05
:102510004410816054E004EBC40105F5157000EB34
:10252000810706F5306000EB4410396A0069C0F39A
:102530001200081A786164B9386930B905F29C4212
:102540000121286801F0DAFD03E07969F8680844A0
:10255000F860E1B22846FEF76DFB31E01B4882458A
:102560001BD108F40040B0F5004F07D14FF40041F3
:1025700006F5306000EB4410816021E008F0200097
:10258000202805D1202106F5306000EB4410816041
:10259000E1B22846FEF74EFB12E06CB904EBC40131
:1025A00005F5157000EB8100006928B905F29C4221
:1025B0000021286801F0A2FDE1B22846FEF73AFBAF
:1025C0000020BDE8F08700000A30544F0A31544F14
:1025D0002DE9F84F07460E46D7F80090C84606EB9F
:1025E000C60107F1140000EB8104D4E9041088420D
:1025F00002D90120BDE8F88FD4E90401451AA0688A
:10260000A84200D2A568E81C4FEA900A17E0D4E976
:102610000401451AA068A84200D2A568E81C4FEA48
:10262000900AB879ABB2F2B200904846E16802F085
:102630002DFAE0682844E06060692844606108F58C
:10264000106000EB4610806980B2504506D3D4E993
:102650000410884202D220690028D8D1D4E90401AC
:1026600088420ED806F00F01012000FA01FB40F667
:10267000340050F8080020EA0B0040F6340141F81D
:1026800008000020B6E77047704710B5FEF7BEF9A6
:1026900010BD000000B593B0302107A8FDF751FF31
:1026A000142102A8FDF74DFF00BF00200190234830
:1026B000006840F08050214908600846006800F03A
:1026C0008050019000BF00BF00BF002001901C4857
:1026D000006840F440401A4908600846006800F469
:1026E0004040019000BF00BF012007900004089007
:1026F00002200D9041050E9119210F91C0211091DA
:10270000022111910421129107A8FFF70BFA08B1D9
:10271000FEF751F80F200290022003900020049051
:102720004FF48050059000200690032102A8FFF787
:10273000D9F808B1FEF73FF813B000BD40380240A9
:10274000007000400348006840F4700001490860D0
:102750007047000088ED00E070B5D0F8C822D0F8CE
:10276000D43200EB8303D3F8C032002B28D001F021
:102770000F0C0CEB8C0400EB840500266C6954B143
:102780000CEBCC0C02EB8C02D2F81CC0B4FBFCF2BC
:102790000CFB1242B2B1C3F81462D0F8D42200EBA1
:1027A0008200D0F8C402D0F810C0BCF1000F05D0F0
:1027B0000A4603F50471D3F80802E047002070BD13
:1027C000032070BD6E6100231A4600F041FFF5E75B
:1027D00070B50446D4F8D40204EB8000D0F8C0529F
:1027E000002D12D0204600F00AFEC5F80C02D4F8E5
:1027F000D412D5F8040204EB8101D1F8C412CA68DE
:1028000005F503719047002070BD032070BD0000E6
:1028100070B50446234D2046297800F0FCFC28784A
:10282000002600F00F0000EB800004EB800080F831
:1028300023606978204600F0EEFC687800F00F0015
:1028400000EB800004EB800080F86361A9782046EB
:1028500000F0E1FCA87800F00F0000EB800004EB32
:10286000800080F82360C661D4F8D40204EB8000B5
:10287000D0F8C01299B1D0F8C40240688047D4F8AB
:10288000D40204EB8000D0F8C00201F077F9D4F84C
:10289000D40204EB8000C0F8C062C4F8BC6200201F
:1028A00070BD00008000002010B5D0F8D41200EBFD
:1028B0008100D0F8C042002C10D0D0F8C41259B119
:1028C00094F80002FF2807D08B6894F80122214673
:1028D0009847FF2084F80002002010BD032010BD9F
:1028E0000A210180004870478400002070B5064628
:1028F00082210C4800F0E8FB05460121094800F060
:10290000E3FB04468121074800F0DEFB0DB11021F6
:10291000A971402104B1A18000B1818043203080A1
:10292000004870BD9000002070B5064682210D4819
:1029300000F0CAFB054601210A4800F0C5FB044629
:102940008121084800F0C0FB0DB11021A9714FF49E
:10295000007104B1A18000B1818043203080014822
:1029600070BD00009000002070B5064682210C4822
:1029700000F0AAFB05460121094800F0A5FB04462A
:102980008121074800F0A0FB0DB11021A971402161
:1029900004B1A18000B1818043203080004870BD27
:1029A000900000202DE9F04704464FF4077001F035
:1029B000E7F805464FF00008002D65D04FF4077189
:1029C0002846FDF7BEFDD4F8D40204EB8000C0F821
:1029D000C052C4F8BC52207C01274A4E4FF0100967
:1029E00000285AD0402302223178204600F076FD9C
:1029F000307800F00F0000EB800004EB800080F8DE
:102A00002370402302227178204600F067FD707821
:102A100000F00F0000EB800004EB800080F8637191
:102A2000B07800F00F0000EB800004EB8000C0F8ED
:102A30001C9008230322B178204600F04FFDB078A7
:102A400000F00F0000EB800004EB800080F82370A2
:102A5000C5F80482D4F8D40204EB8000D0F8C40294
:102A600000688047C5F81482C5F81882D5F804229A
:102A7000002A3DD0207CD0B340237178204600F05E
:102A800039FD0020BDE8F087D4F8D40204EB8000C3
:102A9000C0F8C0820220BDE8F0874FF40073022224
:102AA0003178204600F01AFD307800F00F0000EB7E
:102AB000800004EB800080F823704FF40073022242
:102AC0007178204600F00AFD707800F00F0000EBEE
:102AD000800004EB800080F86371B07800F00F0094
:102AE00000EB800004EB8000C0F81C90A1E702E03E
:102AF0000220BDE8F0874FF400737178204600F0A3
:102B0000F9FCBEE78000002010B5D0F8D41200EB2D
:102B10008101D1F8C01200290CD0027CDFF82CC052
:102B200052B1D1F8042240239CF8011000F0E2FCDD
:102B3000002010BD032010BDD1F804224FF4007313
:102B40009CF8011000F0D6FCF2E7000080000020A5
:102B5000002907D0D0F8D42200EB8200C0F8C412BC
:102B60000020704703207047D0F8D42200EB820089
:102B7000D0F8C002002803D0C0F80412002070472B
:102B800003207047D0F8D43200EB8300D0F8C002A5
:102B9000002805D0C0F80812C0F8102200207047A5
:102BA00003207047F0B583B006460C46D6F8D40231
:102BB00006EB8000D0F8C07200210291019100253F
:102BC000002F0DD0217811F060023BD0202A0AD0CE
:102BD0002146304600F0C9F8032503B02846F0BD71
:102BE00003B00320F0BDE28812B311F0800F10D0C3
:102BF000D0F8C40294F801C039468368604698470B
:102C0000E288072A00D907223946304600F0D5F875
:102C1000E3E7607887F80002E088402800D340208E
:102C2000C2B287F801223946304600F0AAF8D4E74C
:102C3000D0F8C40294F801C000228368214660469F
:102C40009847CAE7607858B10128C6D00A2817D03B
:102C50000B2825D02146304600F087F80325BCE735
:102C600096F89C02032805D02146304600F07DF8F6
:102C70000325B2E7022201A9304600F09EF8ACE736
:102C800096F89C02032805D02146304600F06DF8E6
:102C90000325A2E7012202A9304600F08EF89CE746
:102CA00096F89C02032898D02146304600F05DF843
:102CB000032592E710B5D0F8D41200EB8101D1F8CA
:102CC000C0220121002A03D0D2F8143213B117E038
:102CD000032010BD0121C2F814120A49D2F810C213
:102CE000097801F00F0303EB830300EB8303C3F8C0
:102CF00014C0D2F81032D2F8082200F0A9FC00214A
:102D0000084610BD8000002010B50024D0F8B8227D
:102D10005268904700B10324204610BD90F89C22D1
:102D2000012A05D0022A03D0032A01D000F01DB8E1
:102D30004988012904D10021C0F8A41200F04BB841
:102D40007047002070470020704710B513460A46B0
:102D5000002100F0CFFB002010BD10B513460A463D
:102D6000002100F075FC002010BD10B50446802144
:102D7000204600F04EFC2046BDE81040002100F047
:102D800048BC10B50323C0F89432C0F85421C0F8F1
:102D90006411C0F8582113460A46002100F0AAFB2E
:102DA000002010BD10B50521C0F8941200231A466A
:102DB000194600F09FFB002010BD10B50223C0F89B
:102DC000943242614162826113460A46002100F05A
:102DD0003FFC002010BD10B50421C0F89412002360
:102DE0001A46194600F034FC002010BD10B500282A
:102DF00006D00A46054906A000F0B2F9034810BD06
:102E00000A46024902A000F0ABF9F7E710040020DF
:102E100043444320436F6E666967000012200880B8
:102E2000004870473800002010B5002806D00A4638
:102E3000054906A000F094F9034810BD0A4602496E
:102E400002A000F08DF9F7E710040020434443206E
:102E5000496E746572666163650000000420088035
:102E6000004870473400002010B50A46024903A00C
:102E700000F076F9004810BD1004002053544D694D
:102E800063726F656C656374726F6E696373000063
:102E900010B5002806D00A46054906A000F060F9E2
:102EA000034810BD0A46024902A000F059F9F7E7AD
:102EB0001004002053544D333220566972747561EA
:102EC0006C20436F6D506F727400000010B51A20B3
:102ED0000880FDF773FC014810BD00004C00002085
:102EE000CA88012A01D0FFF740BF90F89C22012A2E
:102EF00005D0022A03D0032A08D0FFF736BF0021ED
:102F00008160012200F10801FFF757BF0122011D76
:102F1000FFF753BF2DE9F84304460F460020009009
:102F2000002600257888010A082970D2DFE801F020
:102F3000AB040C22ABAB8B9AD4F8B412207C0A6899
:102F4000694690470646A3E0207C4FF0020840B156
:102F5000D4F8B802C16A68468847064686F80180F8
:102F600096E0D4F8B802816A68468847064686F833
:102F700001808DE0C0B206285FD2DFE800F00312C6
:102F800021303F4FD4F8B402426822B1207C694618
:102F9000904706467CE039462046FFF7E6FE0125CD
:102FA00076E0D4F8B402826822B1207C694690476A
:102FB00006466DE039462046FFF7D7FE012567E05B
:102FC000D4F8B402C26822B1207C69469047064614
:102FD0005EE039462046FFF7C8FE012558E0D4F8E8
:102FE000B402026922B1207C6946904706464FE050
:102FF00039462046FFF7B9FE012549E0D4F8B4026E
:1030000042692AB1207C69469047064640E03AE092
:1030100039462046FFF7A9FE012539E0D4F8B4026D
:10302000826922B1207C69469047064630E03946E5
:103030002046FFF79AFE01252AE039462046FFF791
:1030400094FE012524E0207C28B139462046FFF774
:103050008CFE01251CE0D4F8B802416B6846884715
:10306000064615E0207C28B139462046FFF77DFE54
:1030700001250DE0D4F8B802016B68468847064682
:103080000721717004E039462046FFF76EFE0125E6
:10309000002D0CD1FA8892B1BDF8000048B18242EF
:1030A00000D90246009231462046FFF786FEBDE871
:1030B000F88339462046FFF758FEBDE8F8832046DE
:1030C000FFF789FEBDE8F88378B50E460546002473
:1030D0006A88297828468A4212D900918A420FD9F3
:1030E000694600F01BF84178052904D10446A1780F
:1030F000B14205D000246988BDF800209142EFD884
:10310000204678BD00210278002A05D0491CC9B2AA
:10311000401C0278002AF9D1084670470A880378D3
:103120001A440A8001780844704790F89C22012ACA
:1031300005D0022A03D0032A01D0FFF716BECA88A1
:10314000022A01D0FFF711BE0121C160D0F8A412FC
:1031500009B10321C160022200F10C01FFF72DBE6D
:1031600070B50D461646002825D004462046FFF7C8
:10317000C9FF022101EB4000B0F5007F01D9080230
:1031800004E02046FFF7BEFF4000801C308030780E
:103190002870032068700220217800290BD00021BC
:1031A00022782A54641C401CC0B22954401CC0B26E
:1031B0002278002AF4D170BD01460020002906D0F3
:1031C000012905D0022905D0032905D00320704725
:1031D00003207047012070470320704700280FD05C
:1031E0000023C0F8B832C0F8C432C0F8D03209B1F8
:1031F000C0F8B412012180F89C12027000F004B9EA
:103200000320704710B5D0F8C802FDF777FDBDE880
:103210001040FFF7D1BF10B5D0F8C802FDF739FD57
:10322000BDE81040FFF7C8BF70B504460B46002B41
:1032300009D043F080012046FFF783FDFF2862D0CC
:10324000002850D05FE004F11400D4F89412002557
:1032500002293FD1818942688A4210D9511A4160BE
:10326000828901691144016142682046FFF775FDBA
:1032700000231A461946204600F03CF92AE0914204
:1032800014D10068884211D3D4F8981288420DD224
:10329000002211462046FFF760FDC4F89852002333
:1032A0001A461946204600F025F913E094F89C02CE
:1032B000032808D1D4F8B802C16821B1C4F8D452A7
:1032C000C168204688478021204600F0A2F92046A8
:1032D000FFF768FD94F8A00220B1204600F0F7F94E
:1032E00084F8A0520FE094F89C1203290BD1D4F873
:1032F000B822516939B1C4F8D4025269194620463E
:103300009047002800D1002070BD70B504460B46E0
:103310000025002B09D003F07F012046FFF711FDA7
:10332000FF2858D0002844D055E004F5AA70D4F8FE
:10333000941203294FD1818942688A420ED9511AC9
:103340004160828901691144016142688089824239
:1033500000D802462046FFF7F8FC3CE094F8AA02A9
:1033600010F01F0006D0012806D002280AD0002045
:1033700070B11AE00020FBE794F8AE122046FFF788
:10338000E2FCF5E794F8AE122046FFF7DAFCEFE72F
:1033900094F89C12032908D1D4F8B8120A6922B112
:1033A000C4F8D4020969204688472046FFF713FD78
:1033B00011E094F89C1203290AD1D4F8B82291693B
:1033C00031B1C4F8D40292691946204690470546A7
:1033D0000DB1284670BD002070BD0020704710B5AB
:1033E0000024012180F89C12D0F8B822002A04D0D1
:1033F00052680179904700B10324204610BDD0F8EF
:10340000C802FDF7B9BC000010B50178002927D12A
:103410001449C1F8E004C0F8C8124FF0A040086099
:10342000042008710222CA71002088714A728872D1
:10343000C87208738873C8730846FEF7E8F808B1C5
:10344000FDF7B9F980210748FDF7BBFB40220021B9
:103450000448FDF7BBFB802201210248FDF7B6FBC3
:10346000002010BD3018002011F0800F01F07F0106
:10347000D0F8C80201EBC10100EB810001D0807DD2
:10348000704790F85602704710B5D0F8D42200EB80
:103490008202D2F8B822002A04D090F89C32032B82
:1034A00002D004E0032010BD126A02B19047002050
:1034B00010BD10B5D0F8D42200EB8202D2F8B822A9
:1034C000002A04D090F89C32032B02D004E00320A1
:1034D00010BD526A02B19047002010BD10B59C4645
:1034E0001346D0F8C8026246FDF751FCBDE8104013
:1034F000FFF762BE10B5D0F8C802FDF78FFCBDE83B
:103500001040FFF759BE2DE9F04104460025012681
:1035100084F89C620020C4F894026060C4F8A4029D
:1035200084F8A002D4F8B802002806D0426822B17C
:1035300000212046904700B1032500224023114678
:103540002046FFF7CBFF84F863614027A4F8607141
:103550004023002280212046FFF7C0FF84F823602B
:1035600027842846BDE8F08190F89C12042903D1F5
:1035700090F89D1280F89C120020704710B590F8CA
:103580009C12032905D1D0F8B81211B1C96901B153
:103590008847002010BD01740020704710B5D0F896
:1035A000C802FEF740F9BDE81040FFF705BE10B5B0
:1035B000044604F2AA2000F054F80120C4F8940252
:1035C000B4F8B002C4F8980294F8AA1211F01F00DF
:1035D0000AD001280FD0022814D02046BDE81040A0
:1035E00001F0800100F015B804F2AA212046BDE8E0
:1035F000104000F027B904F2AA212046BDE810408F
:1036000000F075BA04F2AA212046BDE8104000F08F
:1036100054B910B5D0F8C802FDF723FCBDE810403E
:10362000FFF7CABD10B5D0F8C802FEF71DF9BDE816
:103630001040FFF7C1BD90F89C12042903D090F808
:103640009C1280F89D12042180F89C120020704783
:1036500010B5D0F8C802FDF749FCBDE81040FFF7EF
:10366000ABBD0A780270491C0A784270491C0A787E
:103670004B1C1B7842EA03224280891C0A784B1CAF
:103680001B7842EA032282808A78C97842EA0121C3
:10369000C180704738B5044600200090002914D03E
:1036A000C4F8B812D4F8D40204EB8000D0F8B80201
:1036B000C16A19B168468847C4F8D002D4F8D80264
:1036C000401CC4F8D802002038BD032038BD0020BB
:1036D000704770B504468888002821D1C888F8B999
:1036E000488880281CD200F07F0594F89C020328AB
:1036F0000DD084F89E5229462046FFF74FFF204602
:10370000FFF769FB45B1022084F89C0270BD20469A
:10371000BDE87040FFF729BB012084F89C0270BD12
:103720002046BDE87040FFF720BB03460020D3F8D9
:10373000B822002A02D012681846104770470000CD
:103740002DE9F04104460F460025334EB97831701B
:10375000012906D939462046FFF707FB0320BDE8BB
:10376000F08194F89C024FF0020802280DD0032843
:1037700025D039462046FFF7F8FA31782046FFF782
:10378000C3FA03252846BDE8F081A1B16160204657
:10379000FFF7CBFF0546280006D039462046FFF745
:1037A000E4FA84F89C82EDE72046FFF714FB03203F
:1037B00084F89C02E6E72046FFF70DFBE2E7C9B17B
:1037C0006068884224D0C1B22046FFF79DFA317864
:1037D00061602046FFF7A9FF0546280014D039464E
:1037E0002046FFF7C2FA21792046FFF78DFA84F8C8
:1037F0009C82C7E784F89C8261602046FFF784FAC8
:103800002046FFF7E8FABDE72046FFF7E4FAB9E7FC
:103810002046FFF7E0FAB5E77C0000204A88012A3D
:1038200003D0022A06D0FFF7A0BA0121C0F8A412E3
:10383000FFF7D1BA8988090A80F8A012FFF7CBBA3E
:10384000FFF7F0BE10B500240A7812F0600211D024
:10385000202A05D0402A03D0FFF787FA204610BD62
:10386000D0F8D42200EB8202D2F8B82292689047B6
:103870000446F3E74A780A2A1CD2DFE802F012185D
:103880001B151B08051B0F0BFFF744FBE6E7FFF7B3
:1038900020FFE3E7FFF754FF0446DFE7FFF720FBD5
:1038A000DCE7FFF742FCD9E7FFF7B8FFD6E7FFF701
:1038B00035FAD3E7FFF759FAD0E72DE9F04105468D
:1038C0000E4600273479307810F060001ED0202892
:1038D00008D0402806D031462846FFF746FA384639
:1038E000BDE8F08121462846FFF72BFAFF28F6D0E5
:1038F0000028F4D1C5F8D402D5F8B8028268002AAD
:10390000EDD03146284690470746E8E77078002812
:1039100072D0012831D0032804D031462846FFF761
:1039200024FADCE795F89C02022806D0032815D07B
:1039300031462846FFF719FAD1E754B1802C08D058
:1039400021462846FFF765FE80212846FFF761FEE5
:10395000C5E731462846FFF708FAC0E7708840B946
:103960003CB1802C05D0F08818B921462846FFF7D5
:1039700050FE2846FFF72FFAB1E795F89C0202287F
:1039800006D0032815D031462846FFF7EEF9A6E702
:1039900054B1802C08D021462846FFF73AFE8021FA
:1039A0002846FFF736FE9AE731462846FFF7DDF94D
:1039B00095E77088002892D114F07F0F03D021463C
:1039C0002846FFF71FFC2846FFF705FA2146284640
:1039D000FFF7B7F9FF2882D0002880D1C5F8D402BC
:1039E000D5F8B8028268002A3FF479AF31462846FC
:1039F0009047074673E7FFE795F89C024FF00008F1
:103A0000022806D0032828D031462846FFF7ADF912
:103A100065E734B1802C04D031462846FFF7A5F97C
:103A20005DE714F0800F07D004F07F0000EB80000A
:103A300005EB8000143007E004F07F0000EB80000D
:103A400005EB800000F5AA7080F80E8000F10E01F1
:103A500002222846FFF7B1F941E714F0800F0DD09C
:103A600004F00F0000EB800005EB800090F82300CD
:103A700068B931462846FFF778F930E704F00F00BF
:103A800000EB800005EB800090F8630158B114F062
:103A9000800F0DD004F07F0000EB800005EB80006C
:103AA00000F114060CE031462846FFF75EF916E7F0
:103AB00004F07F0000EB800005EB800000F5AA76A3
:103AC0004CB1802C07D021462846FFF7CDFC28B109
:103AD0000120B07304E086F80E8001E086F80E80C5
:103AE000022206F10E012846FFF767F9F7E670B5E6
:103AF00005460E460024307810F0600009D02028DA
:103B000007D0402805D031462846FFF72EF9204639
:103B100070BD95F89C02012808D0022806D0032821
:103B200004D031462846FFF720F9F0E7B088C1B24B
:103B300001291ED8C1B22846FFF705F9FF2800D099
:103B400048B10324F0880028E1D1002CDFD12846B9
:103B5000FFF741F9DBE7D5F8B8128A683AB1C5F842
:103B6000D4028A683146284690470446EAE703248F
:103B7000E8E731462846FFF7F8F8C8E77047000045
:103B8000004870471016002070B504460B462246C8
:103B90001978587801282CD140F61C0080581D78DF
:103BA00005F00F060125B540ADB2284340F61C05CF
:103BB000A85002F5106000EB4110006800F40040CE
:103BC000F0BB1889C0F30A001D7940EA854040EA3D
:103BD000815040F0805040F4004002F5106505EB44
:103BE00041152D68284302F5106505EB4115286045
:103BF0002DE040F61C0080581D7805F00F060125C9
:103C0000B540144E06EA0545284340F61C05A85069
:103C100002F5306000EB4110006800F4004078B914
:103C20001889C0F30A001D7940EA854040F08050B1
:103C300040F4004002F5306505EB41152D6800E0C9
:103C400005E0284302F5306505EB411528600020AA
:103C500070BD00000000FFFF01460A464FF41060EF
:103C60008058C30ADB024FF41060835040F6040012
:103C7000805840F4807340F6040083500020704761
:103C80000FB470B504469DF81900012818D1A06B37
:103C900020F48030A063E0681B490840E060E068E1
:103CA00020F44010E0609DF82000012803D1E06876
:103CB00040F48010E060204600F028F8054613E04C
:103CC000E06840F04000E060204600F01FF8054644
:103CD0009DF81D0020B9A06B40F48030A06303E084
:103CE000A06B20F48030A0639DF81600012807D156
:103CF000A06840F00600A060A06840F02000A0602E
:103D0000284670BC5DF814FBBFFFBDFF08B5014637
:103D10000020009000BF0098401C00900098B0F177
:103D2000706F01D9032008BD086900F00040002829
:103D3000F1D00A20009002E00098401E0090009808
:103D40000028F9D1086940F00100086100BF00981F
:103D5000401C00900098B0F1706F01D90320E2E799
:103D6000086900F001000028F1D100BFDBE7000086
:103D700070B504460B46224619785878012848D178
:103D800002F5106000EB4110006800F00040B0F157
:103D9000004F17D102F5106000EB4110006840F0B1
:103DA000006502F5106000EB4110056002F510603F
:103DB00000EB4110006840F0804502F5106000EB18
:103DC0004110056040F63C0080581D7805F00F0654
:103DD0000125B540ADB2A84340F63C05A85040F6D9
:103DE0001C0080581D7805F00F060125B540ADB2C6
:103DF000A84340F61C05A85002F5106000EB4110E6
:103E000000682B4D284002F5106505EB4115286030
:103E10004BE002F5306000EB4110006800F000401C
:103E2000B0F1004F17D102F5306000EB411000688F
:103E300040F0006502F5306000EB4110056002F5CE
:103E4000306000EB4110006840F0804502F53060C2
:103E500000EB4110056040F63C0080581D7805F0ED
:103E60000F060125B540134E06EA0545A84340F666
:103E70003C05A85040F61C008558187800F00F0645
:103E80000120B0400B4E06EA0040854340F61C007E
:103E9000855002F5306000EB41100068064D284067
:103EA00002F5306505EB41152860002070BD00006B
:103EB000007833EC0000FFFF0078F3EF01460A467C
:103EC000D2F8000E20F00300C2F8000E40F6040005
:103ED000805820F0020340F6040083500020704711
:103EE00001460A46D2F8000E20F00300C2F8000E88
:103EF00040F60400805840F0020340F6040083506E
:103F0000002070470FB4F0B5054600272E46002468
:103F100005E0002105F5827040F82410641C0F2C88
:103F2000F7D39DF82200A0B940F60400805940F074
:103F3000020140F604008151A86B40F40010A86310
:103F4000A86B20F40020A863A86B20F48020A8634D
:103F500007E0A86B20F40010A863A86B40F40020D1
:103F6000A8630020C6F8000E9DF81D0001280CD1A2
:103F70009DF81B0020B90021284600F00AFD08E04A
:103F80000121284600F005FD03E00321284600F04A
:103F900000FD1021284600F002FC00B10127284650
:103FA00000F0D5FB00B1012700214FF401608151E1
:103FB000001D815140F61C00815100242EE006F5C1
:103FC000106000EB4410006800F00040B0F1004FBA
:103FD00010D13CB94FF0006106F5106000EB4410C1
:103FE00001600DE04FF0904106F5106000EB4410C9
:103FF000016005E0002106F5106000EB441001604F
:10400000002106F5106000EB441001614FF67F318E
:1040100006F5106000EB44108160641C9DF81800E8
:10402000A042CCD800242EE006F5306000EB44100E
:10403000006800F00040B0F1004F10D13CB94FF0E3
:10404000006106F5306000EB441001600DE04FF0B8
:10405000904106F5306000EB4410016005E000215E
:1040600006F5306000EB44100160002106F5306079
:1040700000EB441001614FF67F3106F5306000EB34
:1040800044108160641C9DF81800A042CCD84FF405
:104090000160805920F480714FF40160815100204B
:1040A000A8616FF0804068619DF81A0018B9A8698E
:1040B00040F01000A861A8690A490843A8619DF86A
:1040C0001E0018B1A86940F00800A8619DF8220000
:1040D000012803D1A86904490843A8613846F0BC07
:1040E0005DF814FB00383C800400004001468868FD
:1040F00020F00100886000207047000070B5034682
:104100000C4619461D6C1848854209D94FF4306099
:10411000405800F00040B0F1004F01D1002070BDC8
:104120000026C1F8106BD1F8100B40F40026C1F83E
:10413000106BD1F8100B40F01806C1F8106BD1F8D5
:10414000100B40F0C046C1F8106B012C09D1C1F82A
:10415000142B4FF43060405840F080264FF430600C
:1041600046500020DBE700000A30544F30B50446CB
:104170000B4622461978587801281ED102F51060A6
:1041800000EB4110006820F4001502F5106000EB10
:10419000411005601879032802D0187902282AD125
:1041A00002F5106000EB4110006840F0805502F508
:1041B000106000EB411005601DE002F5306000EB7F
:1041C0004110006820F4001502F5306000EB41104A
:1041D00005601879032802D0187902280BD102F55E
:1041E000306000EB4110006840F0805502F530600F
:1041F00000EB41100560002030BD30B504460B4691
:10420000224619785878012821D102F5106000EB78
:104210004110006800F0004060B959B102F510602B
:1042200000EB4110006820F0804502F5106000EBC3
:104230004110056002F5106000EB4110006840F489
:10424000001502F5106000EB4110056020E002F55A
:10425000306000EB4110006800F0004060B959B1D7
:1042600002F5306000EB4110006820F0804502F557
:10427000306000EB4110056002F5306000EB41104A
:10428000006840F4001502F5306000EB4110056055
:10429000002030BD2DE9F84381460E4690464D463C
:1042A0003478707801287DD1306920BB05F5106025
:1042B00000EB44100069E649084005F5106101EB88
:1042C0004411086105F5106000EB4410006940F4EA
:1042D000002105F5106000EB4410016105F5106048
:1042E00000EB44100069C10CC90405F5106000EB37
:1042F000441001616FE005F5106000EB44100069A7
:10430000C10CC90405F5106000EB4410016105F50E
:10431000106000EB44100069CD49084005F51061BC
:1043200001EB4411086194B9B1683069884201D940
:10433000B068306105F5106000EB4410006940F48E
:10434000002105F5106000EB4410016135E0B16813
:1043500030690844401EB0FBF1F087B205F51060EB
:1043600000EB44100069BA49C94301EAC741084358
:1043700005F5106101EB44110861307901281CD169
:1043800005F5106000EB4410006920F0C04105F510
:10439000106000EB4410016105F5106000EB441063
:1043A000006900E099E04FF0C04101EA477108431D
:1043B00005F5106101EB4411086105F5106000EB93
:1043C000441000693169C1F31201084305F5106119
:1043D00001EB44110861B8F1010F36D1F06928B141
:1043E00005F5106000EB4410F16941613079012856
:1043F0001ED140F60800405900F4807060B905F500
:10440000106000EB4410006840F0005105F51060AA
:1044100000EB441001600BE005F5106000EB441068
:10442000006840F0805105F5106000EB4410016019
:1044300005F5106000EB4410006840F0044105F5FC
:10444000106000EB44100160FEE005F5106000EB29
:104450004410006840F0044105F5106000EB441082
:104460000160307901280FD030690028ECD040F687
:1044700034004059317801F00F0201219140084386
:1044800040F634014851DFE040F60800405900F49E
:10449000807060B905F5106000EB4410006840F0D2
:1044A000005105F5106000EB441001600BE005F5CC
:1044B000106000EB4410006840F0805105F510607A
:1044C00000EB44100160CDF80080308A83B232786E
:1044D0004846F16800F0DAFAB6E005F5306000EB26
:1044E00044100069C10CC90405F5306000EB4410AC
:1044F000016105F5306000EB441000695449084043
:1045000005F5306101EB4411086104BB306908B165
:10451000B0683061B068306205F5306000EB44107F
:104520000069316AC1F31201084305F5306101EBFE
:104530004411086105F5306000EB4410006940F457
:10454000002105F5306000EB4410016143E0306963
:10455000D0B905F5306000EB44100069B168C1F3D3
:104560001201084305F5306101EB4411086105F5BE
:10457000306000EB4410006940F4002105F5306024
:1045800000EB4410016126E0B16830690844401E28
:10459000B0FBF1F087B2B0687843306205F5306067
:1045A00000EB441000692A49C94301EAC7410843A6
:1045B00005F5306101EB4411086105F5306000EB51
:1045C00044100069316AC1F31201084305F53061F6
:1045D00001EB44110861B8F1010F07D1F06828B16F
:1045E00005F5306000EB4410F16841613079012835
:1045F0001ED140F60800405900F4807060B905F5FE
:10460000306000EB4410006840F0005105F5306068
:1046100000EB441001600BE005F5306000EB441046
:10462000006840F0805105F5306000EB44100160F7
:1046300005F5306000EB4410006840F0044105F5DA
:10464000306000EB441001600020BDE8F8830000FA
:10465000FFFF07E078B503460024009400201A46C7
:104660004C78012C35D10C7802F5106505EB44141B
:10467000246804F00044B4F1004F60D10C7805EBDD
:104680004414246844F000660C7805EB441426605A
:104690000C7805EB4414246844F080460C7805EB54
:1046A0004414266000BF009C641C009442F2107504
:1046B000009CAC4201D901200AE00C7802F510659B
:1046C00005EB4414246804F00044B4F1004FEAD030
:1046D00035E00C7802F5306505EB4414246804F0ED
:1046E0000044B4F1004F2AD10C7805EB441424683F
:1046F00044F000660C7805EB441426600C7805EB5A
:104700004414246844F080460C7805EB4414266079
:1047100000BF009C641C009442F21075009CAC42E7
:1047200001D901200AE00C7802F5306505EB44144C
:10473000246804F00044B4F1004FEAD000BF78BD13
:104740000146886840F0010088600020704708B585
:1047500001460020009000BF0098401C0090009887
:10476000B0F1706F01D9032008BD086900F0004066
:104770000028F1D0002000901020086100BF0098B0
:10478000401C00900098B0F1706F01D90320EBE756
:10479000086900F010001028F1D00020E4E708B507
:1047A00002460020009000BF0098401C0090009836
:1047B000B0F1706F01D9032008BD106900F000400E
:1047C0000028F1D000200090202040EA81101061E4
:1047D00000BF0098401C00900098B0F1706F01D9A4
:1047E0000320E9E7106900F020002028F1D0002024
:1047F000E2E710B501460B4640F60804E45804F021
:1048000006020AB9002006E0022A01D0062A01D1D8
:10481000022000E00F2010BD0146486900F00100B1
:10482000704701460B4640F61800C258001DC0589C
:10483000024090B2704701460B4640F61800C2583D
:10484000001DC0580240100C704770B50246134658
:104850004FF40166F45840F63406F55801F00F069F
:1048600025FA06F606F0010644EAC61403F51066BA
:1048700006EB4116B66806EA040070BD10B50246A4
:10488000134603F5306404EB4114A06840F61404A9
:10489000E458204010BD014648698A6910407047BD
:1048A0002DE9F04104460D46274628464FEA920C72
:1048B00002F0030300210AE04FF4805858F8078003
:1048C000C0F80080401C401C401C401C491C614535
:1048D000F2D39BB100214FF4805858F8076000BF15
:1048E0004FEAC10826FA08F880F80080491C401CED
:1048F000A3F101081FFA88F3002BF1D1BDE8F08184
:1049000070B504460E460025E06820F0C040E06027
:10491000012E10D1E06840F00050E06000BF0A2096
:10492000FBF768FF0A352046FFF776FF012815D010
:10493000C82DF4D312E07EB9E06840F08040E0601A
:1049400000BF0A20FBF756FF0A352046FFF764FF39
:1049500020B1C82DF5D301E0012070BDC82D01D1D3
:104960000120FAE70020F8E710B502460B46114691
:10497000D1F8000820F4FE60C1F80008D1F8000862
:104980004FF4FE6404EA03142043C1F80008002039
:1049900010BD02461346D3F800080843C3F80008C8
:1049A0000020704730B503461446022C49D12D48EB
:1049B000814204D32C48814201D20F2245E02A488B
:1049C000814204D32948814201D20E223DE027488A
:1049D000814204D32648814201D20D2235E0244889
:1049E000814204D32348814201D20C222DE0214888
:1049F000814204D32048814201D20B2225E01E4887
:104A0000814204D31D48814201D20A221DE01B4885
:104A1000814204D31A48814201D2092215E0184884
:104A2000814204D31748814201D208220DE0154883
:104A3000814204D31448814201D2072205E00622B4
:104A400003E00CB9092200E00922D86820F4705074
:104A5000D860D8684FF4705505EA82252843D8609D
:104A6000002030BDC0ACD800C0E1E4000024F40058
:104A700080730601A0491A01002D310140A44C01A8
:104A800000366E0120ABA6010048E8012DE9F04395
:104A900004460D461E46DDF81CC0A0462946BCF162
:104AA000000F12D1F01C870800230CE0D1F8009011
:104AB00008F5805000EB0230C0F80090491C491CFA
:104AC000491C491C5B1CBB42F0D30020BDE8F083AD
:104AD00000BFFEE702480068C0F3022070470000F4
:104AE0000CED00E010B5002804DB0A07130E054AA0
:104AF000135406E00A07140E034A00F00F031B1FAD
:104B0000D45410BD00E400E018ED00E000BF704791
:104B100070B500250DE0084C07E06068A84203D19D
:104B2000A06808B1A06880470C3404488442F4D3DC
:104B30006D1C042DEFD370BDAC4E0008DC4E000898
:104B400000B5FDF709FB00BD10B5FDF7ACFB10BDCE
:104B500038B504460D46E0B2009000BF012168461A
:104B6000FBF712FE0028F9D1204638BD0246501A44
:104B700070470246501A704770B50446002C74D135
:104B800000BFFBF73DFF06462F2152A0FBF79CFC20
:104B900028B12F214FA0FBF797FC401C0BE05C21B4
:104BA0004CA0FBF791FC28B15C214AA0FBF78CFCE0
:104BB000401C00E047A005463346432229464AA050
:104BC000FBF7DCFB00BF00BF2F2142A0FBF77CFC02
:104BD00028B12F213FA0FBF777FC401C0BE05C21A4
:104BE0003CA0FBF771FC28B15C213AA0FBF76CFC00
:104BF000401C00E037A00546FBF702FF06464423B1
:104C00002A4631463FA0FBF7B9FB00BF00BF2F216A
:104C100030A0FBF759FC28B12F212EA0FBF754FC44
:104C2000401C0BE05C212BA0FBF74EFC28B15C2163
:104C300028A0FBF749FC401C00E026A00546FBF736
:104C4000DFFE064645232A46314639A0FBF796FB90
:104C500000BF00BF2F211FA0FBF736FC30B12F2172
:104C60001CA0FBF731FC401C0CE02FE05C2119A0DC
:104C7000FBF72AFC28B15C2116A0FBF725FC401CA1
:104C800000E014A00546FBF7BBFE064646232A4675
:104C9000314632A0FBF772FB00BF3B48007830B1D1
:104CA0004FF4FA7264213948FDF7DBFA05E064221B
:104CB0004FF4FA713548FDF7D4FA3348007808B953
:104CC000012000E000203049087000E000BF00BF74
:104CD00070BD00002E2E2F436F72652F5372632F0D
:104CE0006D61696E2E6300005B25733A25645D205B
:104CF0005B25755D3A206B657920636C69636B0D8C
:104D00000A0000001B5B33326D5B494E464F5D204D
:104D10005B25755D205B25733A25645D3A206B65E4
:104D20007920636C69636B0D0A1B5B306D000000BA
:104D30001B5B33336D5B5741524E5D205B25755DC8
:104D4000205B25733A25645D3A206B657920636C9E
:104D500069636B0D0A1B5B306D0000001B5B333118
:104D60006D5B4552524F525D205B25755D205B2582
:104D7000733A25645D3A206B657920636C69636BD7
:104D80000D0A1B5B306D0000000000200C010020AC
:104D9000FBF748FEFDF77EFCFDF7B8FAFDF70EFBCA
:104DA000FFF7B6FE0BE0FBF72BFE04462146044856
:104DB000FDF75CF921460348FDF7ECF900BFF2E787
:104DC000200100200C01002000B585B0054A00211B
:104DD0006846FDF731F9142269460348FBF77FFB6B
:104DE00005B000BD794B00082001002000B585B05A
:104DF00000216846FDF7B7F9142269460348FBF71E
:104E00006EFB0248FDF747FA05B000BD0C0100201B
:104E10004FF04070E1EE100A7047000000080240B9
:104E2000002000000000024001000000000000001F
:104E3000000000000102030406070809000000004A
:104E4000010203046273705F6C65645F696E69746C
:104E5000000000006273705F6B65795F696E697452
:104E6000000000006D69645F6C65645F66736D5F70
:104E7000696E6974000000006D69645F6B65795F3D
:104E800066736D5F696E697400000000DC4E000897
:104E9000000000200C010000D4010008E84F0008C9
:104EA0000C0100206C220000F0010008444E0008B4
:104EB00001000000494B0008544E000801000000AA
:104EC000414B0008644E000802000000ED4D000850
:104ED000784E000802000000C94D000800000000E4
:104EE00000000000000000001000000001000000B1
:104EF0000024F4001D2E00085D2E0008692E000815
:104F0000912E0008CD2E0008ED2D0008292E000856
:104F10000403090412010002020200408304405706
:104F200000020102030100001A030000000000005B
:104F30000000000000000000000000000000000071
:104F40000000000049070008450700083D07000869
:104F50006D0700088507000800000000810182003D
:104F60000A060002000000400100000009024300A0
:104F7000020100C032090400000102020100052400
:104F8000001001052401000104240202052406008A
:104F9000010705820308001009040100020A00004D
:104FA00000070501024000000705810240000000E3
:104FB000A529000811280008A52B00080000000002
:104FC000A928000859270008D12700080000000080
:104FD000000000000000000029290008ED2800085A
:084FE00069290008E12800081E
:040000050800019955
:00000001FF
