:020000040800F2
:10000000C047012091020008A93F000851300008B4
:10001000A53F00087D0700083D6E000800000000B5
:10002000000000000000000000000000A7440008DD
:100030000B0B0008000000001B420008A944000848
:10004000AB020008AB020008AB020008AB020008DC
:10005000AB020008AB020008AB020008AB020008CC
:10006000AB020008AB020008AB020008AB020008BC
:10007000AB020008AB020008AB020008AB020008AC
:10008000AB020008AB020008AB0200080000000051
:10009000000000000000000000000000AB020008AB
:1000A000AB020008AB020008AB020008AB0200087C
:1000B000AB020008AB020008AB020008AB0200086C
:1000C000AB020008AB020008AB0200081D420008AA
:1000D000AB020008AB020008AB0200080000000001
:1000E000AB020008AB020008AB02000800000000F1
:1000F000000000000000000000000000AB0200084B
:1001000000000000AB020008AB020008AB020008D0
:1001100000000000000000000000000000000000DF
:10012000AB020008AB020008F1090008AB020008AE
:10013000AB0200080000000000000000000000000A
:10014000000000000000000000000000AD3F0008BB
:10015000AB020008AB020008AB020008AB020008CB
:10016000AB020008AB020008000000000000000025
:10017000000000000000000000000000000000007F
:1001800000000000AB0200080000000000000000BA
:10019000AB020008AB02000800F002F800F067F8BC
:1001A0000AA090E8000C82448344AAF10107DA45D2
:1001B00001D100F05CF8AFF2090EBAE80F0013F0BD
:1001C000010F18BFFB1A43F00103184780710000AC
:1001D000A07100000A444FF0000C10F8013B13F02E
:1001E000070408BF10F8014B1D1108BF10F8015B90
:1001F000641E05D010F8016B641E01F8016BF9D183
:1002000013F0080F1EBF10F8014BAD1C0C1B09D1D9
:100210006D1E58BF01F801CBFAD505E014F8016B4B
:1002200001F8016B6D1EF9D59142D6D370470000DD
:100230000023002400250026103A28BF78C1FBD8EF
:10024000520728BF30C148BF0B607047642900F0D7
:100250002181752900F01E81732900F02A82002077
:1002600070471FB506F0ECFF1FBD10B510BD00F0C4
:1002700053FA1146FFF7F5FF06F0C0FE00F071FAE1
:1002800003B4FFF7F2FF03BC06F0F6FD40BA704777
:100290000948804709480047FEE7FEE7FEE7FEE71A
:1002A000FEE7FEE7FEE7FEE7FEE7FEE70448054956
:1002B000054A064B70470000614500089901000897
:1002C000C0410120C0470120C0430120C04301209C
:1002D000704753EA020C00F069802DE9F04B4FF0B3
:1002E0000006002B1FBFB3FA83F503FA05F424FAC6
:1002F00005F65E4012BF1643B2FA82F502FA05F423
:10030000C5F120051EBF22FA05FC44EA0C04203585
:1003100056EA044C4FEA144418BF641C4FF000081E
:100320004FF00009904271EB030C39D3002919BF3B
:10033000B1FA81F701FA07F6B0FA80F700FA07F68A
:10034000C7F120071EBF20FA07FC46EA0C0620373B
:10035000B6FBF4FCA7EB0507103F07F01F0BCBF132
:1003600020060CFA0BFB2CFA06F644BFB346002617
:10037000202FA4BF5E464FF0000B5BEA060C08BFBF
:100380004FF0010B19EB0B09ABFB027C48EB0608A5
:10039000C01B06FB02CC0BFB03CC71EB0C01C1E7CD
:1003A0000B46024641464846BDE8F08B13B54FF078
:1003B00000004FF00001AFF30080BDE81C40704723
:1003C0000FB4044910B503AA029800F077F910BCE5
:1003D0005DF814FB1C0000202DE9F0410E46044698
:1003E000002020622046E168884730B3252805D0E8
:1003F000D4E901219047206A401CF2E7E1682046D9
:1004000000278847050018D0A5F14100192802D817
:1004100020354FF400673246294620462760FFF713
:1004200015FF40B1012804D0F61D26F00706083656
:10043000D8E7361DD6E72846DAE7206ABDE8F0811E
:1004400070B50C460546012A05D02878800600D5EF
:10045000EA69002302E0012305E05B1C934202D21B
:10046000E05C0028F9D1A869E618C01AA861286ADA
:10047000184428622846AFF3008004E0D5E9012142
:1004800014F8010B9047B442F8D32846AFF300802C
:1004900070BD00002DE9F041064600241068752962
:1004A000314616A510D0AFF30080002802DA404292
:1004B00013A507E031688A0701D512A502E04907B4
:1004C00004D511A5012401E0AFF3008000210A2228
:1004D00006F1240709E0B0FBF2FCB0FBF2F302FBEB
:1004E0001C00303078541846491C0028F3D12346AC
:1004F0002A463046BDE8F04100F070B80000000028
:100500002D0000002B000000200000000022CBB2D4
:1005100010F8011B994200D1421E0029F8D1104663
:10052000704710B5203AC0F00B80B1E81850203A5F
:10053000A0E81850B1E81850A0E81850BFF4F5AF83
:100540005FEA027C24BFB1E81850A0E8185044BF0D
:1005500018C918C0BDE810405FEA827C24BF51F87A
:10056000043B40F8043B08BF7047D20728BF31F86E
:10057000023B48BF11F8012B28BF20F8023B48BFBF
:1005800000F8012B70474FF0000200B51346944667
:100590009646203922BFA0E80C50A0E80C50B1F1DB
:1005A0002001BFF4F7AF090728BFA0E80C5048BFEF
:1005B0000CC05DF804EB890028BF40F8042B08BF8D
:1005C000704748BF20F8022B11F0804F18BF00F889
:1005D000012B704770477047704770472DE9F0470F
:1005E0000D4699469246044600F1240801688806A3
:1005F00004D5E06921F01001216000E00120A8424B
:1006000001DD471B00E00027A1697A1902EB090010
:10061000081AA0612078C00602D42046AFF30080FB
:10062000002608E0D4E901211AF806009047206A64
:10063000401C761C20624E45F4DB2078C0060AD5AB
:100640002046AFF3008006E0D4E901213020904736
:10065000206A401C2062381EA7F10107F4DC07E085
:10066000D4E9012118F805009047206A401C206257
:10067000281EA5F10105F3DC2046AFF300802078A9
:10068000000602D50220BDE8F0870120FBE710B587
:10069000436913B1AFF3008001E0FFF7D1FE012001
:1006A00010BD127800F124010A7000224A70012264
:1006B000EDE711684FF0FF32E9E70000074B70B536
:1006C0000D467B4400F011F80446284600F020F85F
:1006D00010B14FF0FF3070BD204670BD0D690000B5
:1006E00001694A1C02610878704700B58FB0CDE9F6
:1006F00001310021059105497944CDE903101146E6
:100700006846FFF769FE0FB000BD0000E5FFFFFF80
:10071000007B00F080007047754600F02BF8AE4675
:1007200005006946534620F00700854618B020B5FD
:10073000FFF7BCFDBDE820404FF000064FF000077A
:100740004FF000084FF0000B21F00701AC46ACE879
:10075000C009ACE8C009ACE8C009ACE8C0098D46E6
:10076000704710B50446AFF300802046BDE8104046
:10077000FFF786BD004870476041012000BFFEE7DB
:1007800004284FF0000070470020704710B5002289
:100790000449054804F0ACFB0449034804F09AFB03
:1007A000002010BD5C320120802501205C2A012040
:1007B00010B50146034804F08DFB024804F05AFBD3
:1007C000002010BD802501200020704710B50A468A
:1007D0000849D1F8BC12D1F81412002901D0012027
:1007E00010BD0146034804F083FBBDE810400148FA
:1007F00004F016BC802501201CB504F03FF800224F
:1008000010211B4800F096FC322000F093FB0122DF
:100810001021174800F08EFC642000F08BFB0122B1
:100820008021134800F086FC01224021104800F08E
:1008300081FC0A2000F07EFB00200190012201A92A
:1008400000F0ACF802200190012201A9802000F004
:10085000A5F80C200190012201A9882000F09EF843
:100860002020009001226946FA2000F097F81CBD74
:10087000000402402DE9F04105460C46164604F0FE
:1008800091F82A2004F05AF803F0D4FFE8B204F0FB
:1008900055F803F0CFFF04F085F82B2004F04EF854
:1008A00003F0C8FF002706E0012004F019F804F85F
:1008B000010B781CC7B2B742F6DB03F0EDFF04F082
:1008C00091F8BDE8F08100003EB5002400200290C0
:1008D00000900190012202A90220FFF7CBFF9DF8B2
:1008E000080000F00F0000283CD09DF8080000F040
:1008F0000F01FF208840C0432649087000BF28E050
:10090000244800780121A140084000B3224931F871
:10091000140006226946FFF7ADFF9DF802101D483E
:10092000801C20F814109DF804100A3020F81410D0
:100930009DF8010000F0C000802808D00021154873
:100940000C3020F814100A3820F814103EBD601C3A
:10095000C4B2012CD4DB0F48007840F081000D496F
:10096000087014E00B48007800F0810030B10948AD
:10097000007820F080000749087008E00020054951
:10098000488088810846007800F0E000087000BFC9
:10099000DCE70000001500206C7200082DE9F04132
:1009A00005460E4617464FF0000803F0FBFF2A20CD
:1009B00003F0C4FF03F03EFFE8B203F0BFFF03F013
:1009C00039FF00240BE0305D03F0B8FF04F026F897
:1009D0008046B8F1000F00D003E0601CC4B2BC42F6
:1009E000F1DB00BF03F0FEFF4046BDE8F0810000F0
:1009F00010B5024800F0BEF810BD000098010020BC
:100A00000146087810381823B0FBF3F20848805CE0
:100A1000C865032A05D908686FF30900001D8865B9
:100A200003E008686FF309008865886D704700006F
:100A3000A4720008014600208A6A8B69CBB932B1E2
:100A4000012A0DD0022A03D0032A10D10EE000BFE4
:100A5000CB6A03F08073B3F1807F00D1012007E0FF
:100A6000CB6AB3F1C07F00D1012001E000E000BFFC
:100A700034E08B69B3F5005F1AD132B1012A07D097
:100A8000022A03D0032A11D10AE000BF01200EE0A0
:100A9000CB6A03F08073B3F1807F00D1012006E0C0
:100AA000CB6AB3F1C07F00D1012000E000BF15E0A8
:100AB00032B1012A05D0022A04D0032A0CD103E066
:100AC00000BF00BF012008E0CB6A03F08073B3F1E0
:100AD000807F00D1012000E000BF00BF704730B52B
:100AE0000468246824F4802405682C60046863602A
:100AF0008468402C04D10468A2600468E16003E0CB
:100B00000468A1600468E26030BD704772B600BF3F
:100B1000FEE7000070B50B480168001D0568001D68
:100B20000068084400280CD0074C0822A11C02F0E1
:100B300091FA04F112012846BDE87040042202F047
:100B400089BA70BD107AFF1F80000020014691F81D
:100B50003500022803D08020486501207047052019
:100B600081F835000868006820F001000A6810600C
:100B70000020F3E7F8B50446002000908C48006898
:100B80004FF41651B0FBF1F7A56D2E6894F85C1088
:100B900008208840304098B12068006800F00400C8
:100BA00070B12068006820F004002168086094F8A3
:100BB0005C1008208840A860606D40F0010060650E
:100BC00094F85C1001208840304068B1206840698A
:100BD00000F0800040B194F85C1001208840A860CB
:100BE000606D40F00200606594F85C10042088405D
:100BF000304068B12068006800F0020040B194F80D
:100C00005C1004208840A860606D40F004006065BE
:100C100094F85C1010208840304078B32068006859
:100C200000F0080050B394F85C1010208840A860D1
:100C30002068006800F4802080B12068006800F41B
:100C4000002028B9206CC8B12046216C884715E0E7
:100C5000A06C98B12046A16C88470FE0206800681E
:100C600000F4807028B92068006820F0080021682E
:100C70000860206C10B12046216C884794F85C1005
:100C8000202088403040002865D02068006800F0AF
:100C9000100000285FD094F85C1020208840A860E5
:100CA00094F83500052828D12068006820F0160047
:100CB000216808602068406920F080002168486150
:100CC000206C08B9A06C28B12068006820F00800EA
:100CD0002168086094F85C103F208840A8600120DB
:100CE00084F8350000BF002084F8340000BF206D78
:100CF00010B12046216D8847F8BD2068006800F4D7
:100D0000802080B12068006800F4002028B9606C61
:100D100010B12046616C88471DE0E06BD8B12046D9
:100D2000E16B884717E02068006800F4807068B9BC
:100D30002068006820F0100021680860012084F815
:100D4000350000BF002084F8340000BFE06B10B114
:100D50002046E16B8847606D38B3606D00F001009C
:100D6000F0B1052084F835002068006820F001000B
:100D70002168086000BF0098401C0090B84200D96C
:100D800005E02068006800F001000028F3D100BFF2
:100D9000012084F8350000BF002084F8340000BF33
:100DA000E06C10B12046E16C884700BFA4E700006A
:100DB000480000202DE9F0410446002500F0C0F96C
:100DC000074614B90120BDE8F081606A00B100BF98
:100DD000022084F8350000BF002084F8340000BFF2
:100DE0002068006820F00100216808600AE000F037
:100DF000A7F9C01B052805D920206065032084F8C9
:100E00003500E0E72068006800F001000028EED11E
:100E10002068056821480540D4E901010843E168DC
:100E200008432169084361690843A1690843E169EE
:100E30000843216A08430543606A042803D1D4E9C2
:100E40000B0108430543206805602068456925F0CB
:100E50000705606A0543606A04280DD1A06A05434E
:100E6000E06A48B12046FFF7E5FD28B14020606503
:100E7000012084F83500A6E7206845612046FFF789
:100E8000BFFD064694F85C103F208840B06000200B
:100E90006065012084F83500002094E73F8010F061
:100EA0002DE9F04704460D4616461F464FF0000850
:100EB000D4F8589000BF94F83400012802D10220E1
:100EC000BDE8F087012084F8340000BF94F83500B5
:100ED000012825D1022084F83500002060653B46BA
:100EE000324629462046FFF7FAFD94F85C103F2071
:100EF0008840C9F808002068006840F016002168A2
:100F00000860206C28B12068006840F00800216863
:100F100008602068006840F001002168086006E071
:100F200000BF002084F8340000BF4FF002084046A4
:100F3000C6E7000070B5044600F002F906462546F3
:100F4000681C10B104480078054400BF00F0F8F8B0
:100F5000801BA842FAD370BD44000020F8B50246B9
:100F60000B460025002400200021C7E0012606FAD8
:100F700001F51E6806EA0504AC4274D11E7906F03C
:100F80000306012E04D01E7906F00306022E13D1AB
:100F900090684F000326BE40B0434F00DE68BE405D
:100FA00030439060506801268E40B0431E79C6F3EE
:100FB00000168E40304350601E7906F00306032E63
:100FC00009D0D0684F000326BE40B0434F009E6852
:100FD000BE403043D0601E7906F00306022E13D1C6
:100FE000CF0802F1200656F827004E07F70E0F260D
:100FF000BE40B0434F07FF0E1E69BE403043CF08CE
:1010000002F1200646F8270010684F000326BE4074
:10101000B0431E7906F003064F00BE403043106017
:101020005E6806F44036002E67D000BF00260096AA
:10103000344E366846F48046324F3E603E4636684F
:1010400006F48046009600BF00BF2F4E8F0856F86A
:1010500027008E07370F0F26BE40B0432B4EB242FB
:1010600002D1002615E048E0294EB24201D1012606
:101070000FE0284EB24201D102260AE0264EB242CB
:1010800001D1032605E0254EB24201D1042600E03D
:1010900007268F073F0FBE4030431B4E8F0846F890
:1010A00027001F4E3068A0435E6806F4801606B124
:1010B00020431B4E3060361D3068A0435E6806F446
:1010C000001606B12043164E361D3060144E361FF2
:1010D0003068A0435E6806F4003606B12043104E27
:1010E000361F3060361F3068A0435E6806F48036D5
:1010F00006B120430A4E083E3060491C1029FFF417
:1011000035AFF8BD443802400838014000000240C5
:101110000004024000080240000C0240001002409F
:10112000083C0140024613690B400BB1012000E06E
:10113000002070470AB1816101E00B0483617047B0
:1011400001480068704700003C0000200348006828
:101150000349097808440149086070473C000020B1
:101160004400002010B50D48006840F400700B49A1
:1011700008600846006840F480600860084600681F
:1011800040F480700860032000F0A6F80F2000F003
:1011900007F800F02BF8002010BD0000003C0240D2
:1011A00070B504460E4800784FF47A71B1FBF0F048
:1011B0000C490968B1FBF0F5284601F0B4FC08B110
:1011C000012070BD102C07D200222146501E00F0D5
:1011D00045F80548046001E00120F2E70020F0E74F
:1011E00044000020480000204000002008B500BF57
:1011F000002000900E48006840F480400C490860D0
:101200000846006800F48040009000BF00BF00BFA7
:1012100000200090081F006840F08050091F0860FF
:101220000846006800F08050009000BF00BF08BD75
:10123000443802400146084600280DDB00BF00BFCD
:1012400000F01F0301229A4043099B0003F1E023B1
:10125000C3F8002100BF00BF00BF70472DE9F05F59
:1012600080460D461646002705F0EAFD074639463A
:101270002A46334601F00700C0F1070ABAF1040F0D
:1012800002D94FF0040A01E0C0F1070AD14600F18B
:10129000040ABAF1070F02D24FF0000A01E0A0F1F0
:1012A000030AD4464FF0010A0AFA09FAAAF1010A20
:1012B0000AEA020A0AFA0CFA4FF0010B0BFA0CFBCD
:1012C000ABF1010B0BEA030B4AEA0B042146404643
:1012D00005F0BEFDBDE8F09F00BF00F00702064B21
:1012E00019684FF6FF031940044B0B4343EA0221F0
:1012F000014B196000BF70470CED00E00000FA05DB
:10130000704702461068416200207047F0B50346FE
:1013100015461868446A21B944EA05401E68B0625F
:1013200019E01868806A04EB1044002208E018688D
:1013300000F5827050F8220004EB1044501CC2B239
:10134000481E9042F3D844EA0547186800F58270B9
:101350004E1E40F826700020F0BDD0F8E00404F0E6
:10136000F2B901EBC10200EB8202D0F8E004126A8C
:1013700004F010B901EBC10200EB8202D0F8E004E6
:10138000D2F8602204F077B9D0F8E00404F0DDB9B7
:101390002DE9F04104460D4605F08000802808D173
:1013A00005F00F0000EBC00104F1140000EB810612
:1013B00007E005F00F0000EBC00104F5157000EB2D
:1013C00081063146206805F0FBFA07463846BDE83D
:1013D000F08170B504460E4606F0800080280AD1E0
:1013E00006F00F0000EBC00104F1140000EB8105D2
:1013F0000120687009E006F00F0000EBC00104F561
:10140000157000EB81050020687006F00F00287051
:1014100000BF94F89404012801D1022070BD01207E
:1014200084F8940400BF2946206804F057FE00BFEA
:10143000002084F8940400BF00BFEFE770B50446B5
:101440000E4606F00F002179884201D9012070BDB7
:1014500006F0800080280AD106F00F0000EBC001E2
:1014600004F1140000EB81050120687009E006F02A
:101470000F0000EBC00104F5157000EB81050020A2
:1014800068700020A87006F00F00287000BF94F864
:101490009404012801D10220D9E7012084F89404A2
:1014A00000BF2946206805F017F800BF002084F827
:1014B000940400BF00BFCAE7024601F00F0000EB32
:1014C000C00302F5157000EB8300406970472DE9F9
:1014D000F04705460E4690461F464FF0000906F0BD
:1014E000800080280AD106F00F0000EBC00105F152
:1014F000140000EB81040120607009E006F00F0089
:1015000000EBC00105F5157000EB81040020607050
:1015100006F00F002070C8F30A00A0602771607801
:1015200008B120786083022F01D10020607100BFD4
:1015300095F89404012802D10220BDE8F08701202B
:1015400085F8940400BF2146286804F0D3FC00BF4E
:10155000002085F8940400BF4846EEE72DE9F041ED
:1015600005460E461746984606F00F0000EBC001F0
:1015700005F5157000EB8104E760C4F810800020C9
:101580006061607006F00F002070A879012800D11A
:10159000E761AA792146286805F032F80020BDE805
:1015A000F08170B504460D4605F00F0021798842A0
:1015B00001D9012070BD05F0800080280AD105F016
:1015C0000F0000EBC00104F1140000EB81060120C4
:1015D000707007E005EBC50104F5157000EB81069E
:1015E000002070700120B07005F00F00307000BF57
:1015F00094F89404012801D10220DBE7012084F84B
:10160000940400BF3146206804F0ADFF05F00F00E0
:1016100028B9A17904F29C42206804F025FF00BF9C
:10162000002084F8940400BF00BFC3E72DE9F04117
:1016300005460E461746984606F00F0000EBC0011F
:1016400005F1140000EB8104E760C4F8108000206D
:1016500060610120607006F00F002070A8790128F9
:1016600000D1E761AA792146286804F0C9FF00206B
:10167000BDE8F0812DE9FE4F0446D4F800B05E4687
:10168000206805F07FFA002874D1206805F0B9FAC7
:1016900008B9BDE8FE8F40F608008059C0F30D2060
:1016A000C4F8D404206805F0ACFA00F00200022867
:1016B00005D12068406900F0020021684861206877
:1016C00005F09FFA00F01000102845D120688069CD
:1016D00020F0100021688861DBF8209009F00F00ED
:1016E00000EBC00104F5157000EB810AC9F343401B
:1016F00002281AD147F6F07009EA000030B3C9F3A6
:101700000A125846DAF80C1005F080FAC9F30A11EB
:10171000DAF80C000844CAF80C00C9F30A11DAF828
:1017200014000844CAF8140010E0C9F34340062826
:101730000CD1082204F29C41584605F067FAC9F31F
:101740000A11DAF814000844CAF814002068806905
:1017500040F0100021688861206805F052FA00F41A
:101760000020B0F5002F7BD10025206805F019FA84
:10177000029072E0E1E2029800F00100002868D0D7
:10178000E9B2206805F030FA804608F0010048B15F
:10179000012106F5306000EB4510816029462046A6
:1017A00002F03EFC08F00800082809D1082106F5DF
:1017B000306000EB451081602946204602F0FEFBB8
:1017C00008F01000102805D1102106F5306000EB5C
:1017D0004510816008F00200022824D1DBF81400D3
:1017E00000F08000802807D140F60400805940F4C2
:1017F000806140F60400815105EBC50104F51570C8
:1018000000EB810A9AF80300012806D100208AF82B
:101810000300E9B2204600F096FA022106F5306096
:1018200000EB4510816008F02000202805D1202120
:1018300006F5306000EB4510816008F40050B0F50B
:10184000005F06D14FF4005106F5306000EB451003
:1018500081606D1C029840080290029800288AD18D
:10186000206805F0CEF900F48020B0F5802F7DD1FE
:10187000206805F08CF9029000259AE0029800F0AB
:101880000100002873D0E9B2206805F094F9804681
:1018900008F00100F0B305F00F010120884001902D
:1018A00040F634008159019821EA000040F63401E5
:1018B0008851012106F5106000EB45108160A07988
:1018C000012824D105EBC50104F1140000EB8100CF
:1018D00005EBC502C16804F1140000EB82008068CA
:1018E000014405EBC50204F1140000EB8200C16065
:1018F0006DB905EBC50104F1140000EB810000692E
:1019000028B904F29C420121206804F0ADFDE9B23F
:10191000204600E001E0FFF724FD08F00800082859
:1019200005D1082106F5106000EB4510816008F034
:101930001000102805D1102106F5106000EB4510AD
:10194000816008F04000402805D1402106F5106074
:1019500000EB4510816008F0020002281DD12946E5
:10196000584605F0D2F805EBC50101E025E01CE082
:1019700004F1140000EB810A9AF80300012806D153
:1019800000208AF80300E9B2204600F0D8F90221CD
:1019900006F5106000EB4510816008F0800080289B
:1019A00003D12946204602F0DDFB6D1C0298400859
:1019B0000290029800287FF461AF206805F021F9B9
:1019C00000F00040B0F1004F1CD140F604008059F7
:1019D00020F0010140F60400815194F8CC04012864
:1019E00007D1002084F8CC0400212046FFF788FCB2
:1019F00002E0204600F0AFFA2068406900F00040A5
:101A000021684861206805F0FCF800F40060B0F53A
:101A1000006F0ED140F60800805900F0010010B1AF
:101A2000204600F0E7FA2068406900F40060216871
:101A30004861206805F0E5F800F48050B0F5805F5B
:101A40007ED140F60400805920F0010140F60400E8
:101A500081511021206805F058F8002732E04FF638
:101A60007F3106F5106000EB4710816006F51060CD
:101A700000EB4710006820F4001106F5106000EB41
:101A8000471001604FF67F3106F5306000EB4710DC
:101A9000816006F5306000EB4710006820F400110B
:101AA00006F5306000EB4710016006F5306000EB92
:101AB0004710006840F0006106F5306000EB471009
:101AC00001607F1C2079B842C9D840F61C008059BB
:101AD00040F0011140F61C008151E07B70B1D6F856
:101AE000840840F00B01C6F8841840F64400805981
:101AF00040F00B0140F6440081510FE040F6140025
:101B0000805942F22B01084340F614018851081F06
:101B1000805940F00B014FF401608151D6F8000864
:101B200020F4FE60C6F80008A17904F29C42206807
:101B300004F09AFC2068406900F48050216800E0BD
:101B400000E04861206805F05CF800F40050B0F552
:101B5000005F17D1206804F035FA206804F0FFFF19
:101B6000E07100F021FB0090E2792068009905F017
:101B7000CFF8204600F0DCF92068406900F40050FE
:101B800021684861206805F03CF800F0080008284A
:101B900008D1204600F0E3F92068406900F0080011
:101BA00021684861206805F02CF800F0800080284A
:101BB00018D1DBF8180020F08000CBF818000125C0
:101BC0000DE005EBC50104F5157000EB8100C07850
:101BD000012803D1E9B22046FFF7DAFB6D1C20791A
:101BE000A842EED8206805F00CF800F48010B0F59B
:101BF000801F2DD1012522E006F5106000EB451075
:101C0000D0F8009005EBC50104F1140000EB810051
:101C10000079012812D109F00040B0F1004F0DD138
:101C2000012105EBC50204F1140000EB8200C17034
:101C3000E8B240F080012046FFF7AAFB6D1C207936
:101C4000A842D9D82068406900F480102168486112
:101C5000206804F0D6FF00F40010B0F5001F44D156
:101C6000012538E006F5306000EB4510D0F8009013
:101C700005EBC50104F5157000EB81000079012822
:101C800028D109F00040B0F1004F23D194F8D404DA
:101C900000F00100C9F3004188421BD1012105EB8E
:101CA000C50204F5157000EB8200C170DBF8180066
:101CB00040F08000CBF81800DBF8140000F0800042
:101CC00040B940F60400805940F4007140F6040029
:101CD000815103E06D1C2079A842C3D800BF206861
:101CE000406900F4001021684861206804F089FF11
:101CF00000F08040B0F1804F08D12046FFF72DFB67
:101D00002068406900F0804021684861206804F044
:101D100078FF00F0040004280FD12068D0F8049068
:101D200009F00400042802D12046FFF72DFB2068AB
:101D3000406840EA09002168486000BFA9E4D0F883
:101D4000E00403F057BDD0F8E00403F068BDF8B537
:101D500004460CB90120F8BD266894F8950428B90A
:101D6000002084F89404204600F0A0F8032084F8B2
:101D70009504B6F1A04F01D10021A171206804F0B3
:101D80006BFB207C8DF8000094E80F0004F02EF926
:101D900020B1022084F895040120DCE700212068AE
:101DA00004F064FF20B1022084F895040120D2E7FA
:101DB000002531E0012105EBC50204F1140000EB20
:101DC0008200417005EBC50104F1140000F82150B8
:101DD00005EBC50100EB81004583002105EBC50241
:101DE00004F1140000EB8200017105EBC50204F15F
:101DF000140000EB8200816005EBC50204F11400C1
:101E000000EB8200C16005EBC50204F1140000EB99
:101E100082000161681CC5B22079A842CADC002595
:101E20002AE0002105EBC50204F5157000EB8200E5
:101E3000417005EBC50104F5157000F82150002133
:101E400005EBC50200EB8200017105EBC50204F54C
:101E5000157000EB8200816005EBC50204F515707A
:101E600000EB8200C16005EBC50204F5157000EBC4
:101E700082000161681CC5B22079A842D1DC207CB7
:101E80008DF8000094E80F0004F0F2F920B1022070
:101E900084F8950401205EE700206074012084F836
:101EA0009504206804F0D2F9002054E700B587B00B
:101EB0000021029103910491059106910068B0F10F
:101EC000A04F2BD11648016841F001010160006864
:101ED00000F0010001904FF4C050029002200390E6
:101EE000032005900A20069002A90E48FFF736F855
:101EF0000D48016841F0800101600C48016841F41F
:101F000080410160006800F4804001900022114689
:101F10004320FFF7A3F94320FFF78CF907B000BD7A
:101F20003038024000000240343802404438024059
:101F300070B504460125E079022801D0FEF7E6FDE0
:101F40002946D4F8E00403F0DCFCD4F8E004BDE852
:101F5000704003F08EBCD0F8E00403F0BBBCD0F8B6
:101F6000E00403F0C1BC70B504460D4600BF94F810
:101F70009404012801D1022070BD012084F894044A
:101F800000BF65742946206804F0A4FE00BF00204D
:101F900084F8940400BF00BFEEE7D0F8E02400F21C
:101FA0009C41104603F0B9BC70B50446256800BFDB
:101FB00094F89404012801D1022070BD012084F816
:101FC000940400BFE86800F0400030B1607B012855
:101FD00003D1A86B40F48030A863206804F066FD4C
:101FE000206804F021F900BF002084F8940400BFA9
:101FF00000BFE2E710B50446D4F8E00403F0D1FCDA
:102000002068D0F8001E41F00101C0F8001EE07AFF
:10201000002804D00248016841F00601016010BDAB
:1020200010ED00E070B504460D460CB9012070BDFE
:102030005848006800F00700A84209D255490D70C1
:102040000846006800F00700A84201D00120EEE732
:10205000207800F0020002281DD1207800F0040052
:10206000042805D14C48006840F4E0504A49086013
:10207000207800F00800082805D14748006840F49F
:102080006040454908604448006820F0F000A168BD
:10209000084341490860207800F00100A8B3606857
:1020A000012807D13C4808380068C0F34040B8B95F
:1020B0000120BCE76068022802D06068032807D1CD
:1020C000354808380068C0F3406048B90120AEE7E1
:1020D000314808380068C0F3400008B90120A6E77D
:1020E0002D48006820F00300616808432A49086011
:1020F000FFF726F8064609E0FFF722F8801B41F2B9
:102100008831884202D9032091E707E0224800681D
:1021100000F00C006168B0EB810FEDD11D48006844
:1021200000F00700A84209D91A490D700846006856
:1021300000F00700A84201D0012078E7207800F0E5
:102140000400042807D11448006820F4E050E16836
:10215000084311490860207800F00800082808D1D9
:102160000D48006820F46040216940EAC1000A4936
:10217000086000F01FF808490968C1F30311074A15
:10218000515CC8400649086006480068FFF708F837
:1021900000204CE7003C024008380240AC720008C6
:1021A00048000020400000200148006870470000FF
:1021B000480000202DE9F047002400250026A14614
:1021C0002548006800F00C0020B1042805D008283C
:1021D0003AD105E0DFF8849039E0DFF8849036E00A
:1021E0001D48001F006800F03F041B48001F0068E6
:1021F00000F4800078B11A481749091F0968C1F333
:102200008811A0FB01700146224600233846FEF7E4
:1022100060F805460EE011480F49091F0968C1F32F
:102220008811A0FB01700146224600233846FEF7C4
:1022300050F805460848001F0068C0F30140401CE4
:102240004600B5FBF6F902E0DFF8109000BF00BFD2
:102250004846BDE8F0870000083802400024F4003A
:1022600040787D01F8B504460CB90120F8BD20780E
:1022700000F00100002874D0F948006800F00C005C
:1022800004280DD0F648006800F00C00082813D18F
:10229000F348001F006800F48000B0F5800F0BD1F8
:1022A000EF4808380068C0F34040002859D0606803
:1022B000002856D10120D9E700BF6068B0F5803F03
:1022C00008D1E7480838006840F48030E44908390C
:1022D00008601EE06068B0F5A02F0DD1E048083816
:1022E000006840F48020DE4908390860084600682C
:1022F00040F4803008600CE0D9480838006820F4C9
:102300008030D749083908600846006820F48020EA
:10231000086000BF606890B1FEF712FF054606E056
:10232000FEF70EFF401B642801D903209EE7CC482E
:1023300008380068C0F340400028F1D011E0FEF7F3
:10234000FFFE054606E0FEF7FBFE401B642801D9B0
:1023500003208BE7C24808380068C0F340400028DB
:10236000F1D1207800F0020002285FD1BC4800685B
:1023700000F00C0058B1BA48006800F00C000828C2
:102380001CD1B748001F006800F48000B0B9B44801
:1023900008380068C0F3400020B1E068012801D08F
:1023A000012063E7AE480838006820F0F800216992
:1023B00040EAC100AA490839086037E0E06800B384
:1023C0000120A8490860FEF7BBFE054606E0FEF7BF
:1023D000B7FE401B022801D9032047E7A048083870
:1023E0000068C0F340000028F1D09D48083800681C
:1023F00020F0F800216940EAC100994908390860D5
:1024000014E0002097490860FEF79AFE054606E0B2
:10241000FEF796FE401B022801D9032026E79048CC
:1024200008380068C0F340000028F1D1207800F09F
:10243000080008282CD16069A8B101208A490860E9
:10244000FEF77EFE054606E0FEF77AFE401B0228F8
:1024500001D903200AE782486C300068C0F34000CD
:102460000028F1D014E000207F490860FEF768FEE4
:10247000054606E0FEF764FE401B022801D9032052
:10248000F4E677486C300068C0F340000028F1D1D2
:10249000207800F00400042870D1002770483830FC
:1024A000006800F0805090B900BF002000906C4898
:1024B0003830006840F0805069493831086008467B
:1024C000006800F08050009000BF00BF01276748FF
:1024D000006800F48070B0B96448006840F480700F
:1024E00062490860FEF72CFE054606E0FEF728FE6E
:1024F000401B022801D90320B8E65C48006800F4BC
:1025000080700028F2D000BFA068012808D154488C
:102510006830006840F001005149683108601DE0F2
:10252000A06805280DD14E486830006840F00400CE
:102530004B49683108600846006840F001000860B7
:102540000CE047486830006820F0010044496831D9
:1025500008600846006820F00400086000BFA0681A
:10256000A8B1FEF7EDFD054609E0FEF7E9FD401BC9
:1025700041F28831884202D9032077E626E03848C4
:1025800068300068C0F340000028EED013E0FEF78A
:10259000D7FD054608E0FEF7D3FD401B41F2883128
:1025A000884201D9032061E62D4868300068C0F3F5
:1025B00040000028EFD1012F07D1294838300068AA
:1025C00020F0805026493831086000BFA0690028FB
:1025D00045D02348006800F00C0008285DD0A069B1
:1025E000022845D100201F490866FEF7A9FD0546CF
:1025F00006E0FEF7A5FD401B022801D9032035E6C1
:10260000174808380068C0F340600028F1D1D4E9C9
:1026100007010843616A40EA81110122A06AC2EB06
:10262000500041EA00412C20005D41EA00600C4965
:10263000091F086001200B490866FEF781FD054669
:1026400006E0FEF77DFD401B022801D903200DE6C0
:10265000034808380068C0F340600028F1D049E022
:102660000838024000004742800E47420070004098
:10267000002021490866FEF763FD054606E0FEF7E7
:102680005FFD401B022801D90320EFE51B480068CD
:10269000C0F340600028F2D12CE0A069012800D1ED
:1026A000E4E51648001D0668A069012820D006F45C
:1026B0008001E06981421BD106F03F01206A81421E
:1026C00016D147F6C0703040616AB0EB811F0FD160
:1026D00006F440310122A06AC2EB5000B1EB004F7A
:1026E00006D106F070612C20005DB1EB006F01D0C7
:1026F0000120BBE50020B9E5000047420038024058
:1027000070B50546284604F081FD04460CB1012051
:10271000207170BDF8B50446206846682068856859
:10272000C5F3801048B905F0010030B1C6F3801040
:1027300018B12046216C8847F8BDC5F3400030B180
:10274000C6F3C01018B12046616C8847F4E7C5F3A2
:10275000401030B9C5F3801018B9C5F30020002827
:102760007CD0C6F3401000287DD0C5F38010F0B1B6
:1027700094F8510003280ED0606D40F004006065AD
:1027800000BF002000902068C0680090206880682A
:10279000009000BF0BE000BF002000902068C068E0
:1027A000009020688068009000BF00BFC4E7C5F3B8
:1027B000401088B1606D40F00100606500BF0020EE
:1027C00000902068806800902068006820F0400039
:1027D0002168086000BF00BFC5F3002058B1606DDC
:1027E00040F00800606500BF00200090206880680D
:1027F000009000BF00BF606D78B32068406820F093
:10280000E00021684860012084F8510006F00200D1
:10281000022802D006F0010008B32068406820F0CA
:10282000030021684860E06C50B11048E16C086515
:10283000E06CFEF78BF918B1606D40F04000606508
:10284000A06C50B10948A16C0865A06CFEF77EF938
:1028500018B1606D40F04000606503E003E0204681
:10286000FFF74EFF68E700BF66E700002D42000853
:1028700010B504460CB9012010BD606A38B9606813
:10288000B0F5827F00D105E00021E16102E0002186
:10289000216161610021A16294F8510028B90020F2
:1028A00084F85000204600F047F8022084F85100D8
:1028B0002068006820F0400021680860A08800F4CB
:1028C0008270218901F404410843A18901F4006167
:1028D0000843217C01F002010843217D01F0010140
:1028E0000843218B01F400710843217F01F0380176
:1028F00008432021095D01F080010843218D01F486
:1029000000510843216808600421A06901EA1040D1
:1029100094F8241001F010010843216848602068F1
:10292000C06920F400602168C86100206065012052
:1029300084F8510000209FE710B586B004461421AA
:1029400001A8FDF720FE2E492068884255D100BF1E
:10295000002000902B48006840F48050294908600E
:102960000846006800F48050009000BF00BF00BF20
:102970000020009023481438006840F001002149ED
:10298000143908600846006800F00100009000BF9C
:1029900000BFA0200190022002900020039003209D
:1029A00004900520059001A91748FEF7D7FA1748AB
:1029B000174908604FF080604860402114488160EA
:1029C0000021C1604FF4806101610021416181619A
:1029D000C16101624162FEF7EDF908B1FEF796F8B8
:1029E00000BF0B48A064846300BF002201212320A4
:1029F000FEF734FC2320FEF71DFC06B010BD0000DE
:102A0000003001404438024000000240406402406F
:102A1000980100202DE9F04104460E46154694F831
:102A20005100012802D00220BDE8F08106B10DB9A5
:102A30000120F9E700BF94F85000012801D10220DD
:102A4000F2E7012084F8500000BF032084F8510011
:102A5000002060652663A586E586A0636064206427
:102A6000A087E087A068B0F5004F0BD12068006810
:102A700020F04000216808602068006840F4804031
:102A8000216808601F48A16C08641F48A16CC863D6
:102A90001E48A16CC8640020A16C0865E38E2768FD
:102AA00007F10C02216BA06CFEF7FAF950B1606DD2
:102AB00040F01000606500BF002084F8500000BFA7
:102AC0000120B1E72068006800F04000402805D0F0
:102AD0002068006840F040002168086000BF0020C6
:102AE00084F8500000BF2068406840F02000216852
:102AF00048602068406840F002002168486000207B
:102B000092E700006942000877420008414200084D
:102B100070B50546284604F079FB04460CB1012047
:102B2000207170BD704770B504462546681EB0F12F
:102B3000807F01D301200FE0681E4FF0E021486143
:102B40000F214FF0FF3004F083F900204FF0E02117
:102B5000886107200861002070BD000030B5024682
:102B60000B4600BF92F83C00012801D1022030BD85
:102B7000012082F83C0000BF022082F83D0010686E
:102B800044681068816824F0700418680443106871
:102B90004460144D1068A84213D01068B0F1804F03
:102BA0000FD0114D1068A8420BD0104D1068A842EC
:102BB00007D00F4D1068A84203D00E4D1068A842F0
:102BC00005D121F08001586801431068816001201F
:102BD00082F83D0000BF002082F83C0000BF00BF2B
:102BE000C5E700000000014000040040000800406C
:102BF000000C00400040014010B504460CB9012013
:102C000010BD94F83D0028B9002084F83C0020460F
:102C100000F026F8022084F83D00211D206801F014
:102C2000A9FC012084F8460000BF84F83E00012181
:102C30003F200155402001554120015500BF00BFF4
:102C4000012084F8420043200155442001554520CD
:102C5000015500BF012084F83D000020D0E70000AE
:102C600008B50168B1F1804F0FD100BF002100917C
:102C70000649096841F00101044A116011460968DA
:102C800001F00101009100BF00BF08BD40380240C3
:102C90002DE9F04104460D46002700BF94F83C00A2
:102CA000012802D10220BDE8F081012084F83C0017
:102CB00000BF022084F83D002068866826F0770671
:102CC00026F47F46206886602868502833D00CDCC4
:102CD000202850D004DC00284BD0102851D149E0E6
:102CE000302849D040284CD139E060282DD07028B8
:102CF00007D0B0F5805F03D0B0F5005F41D10DE0A3
:102D000041E0D5E902136A68206801F09AFC206866
:102D1000866846F077062068866034E0D5E90213BD
:102D20006A68206801F08DFC2068806840F480406B
:102D30002168886027E0EA686968206801F052FD30
:102D40005021206801F088FC1DE0EA68696820686D
:102D500001F05BFD6021206801F07EFC13E0EA6871
:102D60006968206801F03EFD4021206801F074FC94
:102D700009E000BF00BF00BF2968206801F06CFCBB
:102D800001E0012700BF00BF012084F83D0000BF23
:102D9000002084F83C0000BF384684E710B586B0B8
:102DA0000446142101A8FDF7EEFB2068B0F1804F26
:102DB0001CD100BF002000900D48006840F00100C9
:102DC0000B4908600846006800F00100009000BF51
:102DD00000BF022001900290012003900320049084
:102DE0000120059001A90348FEF7B8F806B010BD10
:102DF00030380240000002402DE9F04104460D4603
:102E00001646002700BF94F83C00012802D102209A
:102E1000BDE8F081012084F83C0000BF36B1042EEB
:102E20001BD0082E31D00C2E5ED145E029462068FB
:102E300001F01CFC2068806940F00800216888616E
:102E40002068806920F0040021688861206880691A
:102E5000296908432168886148E02946206801F013
:102E600035FC2068806940F4006021688861206832
:102E7000806920F480602168886120688069296900
:102E800040EA01202168886130E02946206801F08D
:102E900051FC2068C06940F008002168C8612068C2
:102EA000C06920F004002168C8612068C0692969F0
:102EB00008432168C86119E02946206801F06EFCCA
:102EC0002068C06940F400602168C8612068C0695A
:102ED00020F480602168C8612068C069296940EADF
:102EE00001202168C86101E0012700BF00BF00BFC9
:102EF000002084F83C0000BF384689E710B504463E
:102F00000CB9012010BD94F83D0028B9002084F8C8
:102F10003C00204600F025F8022084F83D00211DE9
:102F2000206801F027FB012084F8460000BF84F8E8
:102F30003E0001213F20015540200155412001550F
:102F400000BF00BF012084F8420043200155442007
:102F500001554520015500BF012084F83D000020A7
:102F6000D0E7704770B504460D4615B994F83E0099
:102F70000BE0042D02D13F20005D06E0082D02D1B8
:102F80004020005D01E04120005D012801D00120CA
:102F900070BD1DB9022084F83E000EE0042D03D15F
:102FA00002213F20015508E0082D03D102214020D5
:102FB000015502E0022141200155012229462068E5
:102FC00001F02EFB1D492068884201D1012000E05C
:102FD000002028B12068406C40F40040216848641B
:102FE00016492068884213D02068B0F1804F0FD076
:102FF0001349206888420BD012492068884207D0C4
:1030000011492068884203D01049206888420CD1B9
:103010002068806800F00706062E0CD02068006843
:1030200040F001002168086005E02068006840F079
:103030000100216808600020AAE7000000000140AC
:103040000004004000080040000C00400040014027
:1030500000BFFEE7F0B40023002A18D90A24302567
:1030600037269C46B4EB107F04D905EB107701F8A6
:10307000137003E006EB107701F81370000101EB09
:10308000430787F801C05B1CDBB29342EAD3F0BC74
:10309000704730B589B005460C4620788DF804009D
:1030A0006068029000208DF80C008DF80D000A2059
:1030B000049000200590A0680690E06807902069C1
:1030C0000890202201A92846FDF72BFA09B030BD4F
:1030D00070B504460D46207A0B287DD2DFE800F05B
:1030E00006210F4F3594586B849AA10020786168AF
:1030F0008847012802D1256102202072A9E02078AA
:1031000061688847012809D12846216903F072FFC8
:10311000E168884204D90120207201E00020207279
:1031200097E020786168884728B92561207A607225
:103130000420207208E02846216903F05BFF6169E2
:10314000884201D30920207283E020786168884793
:1031500090B92846216903F04DFFE16888420DD9F6
:10316000607A012802D10320207207E0607A0A28E1
:1031700004D10020207201E0607A207269E0E069E9
:1031800018B125610620207201E00520207260E060
:10319000207861688847012803D1256107202072C3
:1031A00008E02846216903F025FFE169884201D340
:1031B000052020724DE020786168884701280FD1F2
:1031C0002846216903F016FFE16888420BD9207870
:1031D00000F092F8256100E038E00820207202E05B
:1031E00025610620207234E020786168884748B95C
:1031F0002846216903F0FEFEE168884203D90020D9
:10320000207200E0256124E0207800F025F80020FD
:1032100020721EE02561207800F048F90A20207213
:1032200017E020786168884720B9207A607204200E
:1032300020720AE02846216903F0DCFEA169884279
:1032400003D32561207800F0DDF802E00020207231
:1032500000BF00BF70BD000070B50446002C23D134
:1032600000BF2F2112A0FDF751F928B12F2110A086
:10327000FDF74CF9401C0BE05C210DA0FDF746F971
:1032800028B15C210AA0FDF741F9401C00E008A02C
:103290000546FDF755FF06460C232A4631460CA08D
:1032A000FDF78EF800BF00E000BF00BF70BD00005A
:1032B0002E2E5C555345525C4150505C7372635CDA
:1032C0006B65795F636F6E74726F6C2E63000000C4
:1032D0001B5B33326D5B494E464F5D205B25755D50
:1032E000205B25733A25645D3A20436C69636B0D5E
:1032F0000A1B5B306D00000070B50446002C23D122
:1033000000BF2F2112A0FDF701F928B12F2110A035
:10331000FDF7FCF8401C0BE05C210DA0FDF7F6F872
:1033200028B15C210AA0FDF7F1F8401C00E008A0DC
:103330000546FDF705FF064645232A4631460CA003
:10334000FDF73EF800BF00E000BF00BF70BD000009
:103350002E2E5C555345525C4150505C7372635C39
:103360006B65795F636F6E74726F6C2E6300000023
:103370001B5B33326D5B494E464F5D205B25755DAF
:10338000205B25733A25645D3A20646F75626C6535
:103390000D0A1B5B306D000070B50446012C01DB8B
:1033A000022070BD0025124800EBC400807970B97E
:1033B0000F4A02EBC40291880D4A52F83400FDF71F
:1033C000B1FE08B9012000E0002005460DE0084AE2
:1033D00002EBC4029188064A52F83400FDF7A2FEBF
:1033E000012800D100E0002005462846D9E700006A
:1033F00064720008002001E0411CC8B20128FBDB18
:103400007047000070B50446002C23D100BF2F2167
:1034100012A0FDF77BF828B12F2110A0FDF776F858
:10342000401C0BE05C210DA0FDF770F828B15C2179
:103430000AA0FDF76BF8401C00E008A00546FDF768
:103440007FFE064632232A4631460CA0FCF7B8FF21
:1034500000BF00E000BF00BF70BD00002E2E5C5515
:103460005345525C4150505C7372635C6B65795F8D
:10347000636F6E74726F6C2E630000001B5B3332DF
:103480006D5B494E464F5D205B25755D205B257366
:103490003A25645D3A204C6F6E67507265737352C3
:1034A00065706561740D0A1B5B306D0070B5044674
:1034B000002C23D100BF2F2112A0FDF727F828B13F
:1034C0002F2110A0FDF722F8401C0BE05C210DA07D
:1034D000FDF71CF828B15C210AA0FDF717F8401C85
:1034E00000E008A00546FDF72BFE06461F232A46EE
:1034F00031460CA0FCF764FF00BF00E000BF00BF36
:1035000070BD00002E2E5C555345525C4150505CFE
:103510007372635C6B65795F636F6E74726F6C2E30
:10352000630000001B5B33326D5B494E464F5D20EC
:103530005B25755D205B25733A25645D3A204C6FF1
:103540006E6750726573730D0A1B5B306D0000006F
:103550002DE9F04107460C4615461E46002204217F
:103560000F48FDF7E7FD2A2000F07CF8384600F010
:1035700053F8284600F050F82B2000F073F820464E
:1035800000F04AF8304600F047F82C2000F06AF8C6
:10359000002204210248FDF7CDFDBDE8F0810000C6
:1035A000000002402DE9F0410646002204211748A0
:1035B000FDF7C0FD4FF41667002406E03046FCF727
:1035C00065FE134921F81400641CBC42F6D3EF23B6
:1035D0001A4600210846FFF7BBFF012208210B48CD
:1035E000FDF7A8FD1825002407E04FF4965208497E
:1035F000084800F045FF601C84B2AC42F5DB0022B5
:1036000004210248FDF796FDBDE8F081000002406C
:10361000400200200400002010B5044601220821C9
:103620000548FDF787FD2012044908704C700222FE
:10363000034800F025FF10BD000002400C000020F0
:103640000400002001B5012208210448FDF772FDA5
:1036500001226946024800F013FF08BD0000024045
:103660000400002001B5002208210448FDF762FD96
:1036700001226946024800F003FF08BD0000024035
:103680000400002030B585B005460C4601208DF8B9
:10369000010000208DF80200019002900390049038
:1036A0008DF80040142269462846FCF73AFF05B021
:1036B00030BD70B504460D4604B970BD6078012870
:1036C00006D002280CD0032813D0042854D140E09F
:1036D0002078002100F06EF80020A07060704CE0AF
:1036E0002078012100F066F80120A07000206070B1
:1036F00043E0A078012809D0A07838B120780121D2
:1037000000F058F865600120A07021E0A07870B941
:103710002846A16803F06BFC2169884218D3207801
:10372000012100F047F865600120A07010E0A0784A
:1037300001280DD12846616803F059FCE1688842F0
:1037400006D32078002100F035F8A5600020A07095
:1037500013E0A078012806D12078002100F02AF893
:103760000020A07005E02078012100F023F801205E
:10377000A0700020607000E000BF00BF00BF9CE7A9
:1037800000B97047012141700021817000BFF8E746
:1037900000B970470421417000BFFAE710B500245A
:1037A00005E00021204600F005F8601CC4B2012CA1
:1037B000F7DB10BD70B504460D46012C00DB70BD73
:1037C0000E4800EBC400807930B9012D01D00120F2
:1037D00000E00020064605E0012D01D1012000E0B7
:1037E00000200646054A02EBC4029188034A52F8BB
:1037F00034003246FDF79EFC00BFE0E75C72000833
:1038000010B500220421FE48FDF794FC012210218E
:10381000FB48FDF78FFC01220821F948FDF78AFCDF
:1038200000221021F648FDF785FC1420FDF782FBED
:1038300001221021F248FDF77DFC1420FDF77AFBF0
:10384000FE20FFF70FFFEF20FFF70CFFEB20FFF745
:1038500009FF1420FFF7F6FE8420FFF703FF402046
:10386000FFF7F0FE8820FFF7FDFE0A20FFF7EAFED3
:103870008920FFF7F7FE2120FFF7E4FE8A20FFF7FB
:10388000F1FE0020FFF7DEFE8B20FFF7EBFE80202D
:10389000FFF7D8FE8C20FFF7E5FE0120FFF7D2FEF0
:1038A0008D20FFF7DFFE0320FFF7CCFE8F20FFF710
:1038B000D9FEFF20FFF7C6FEB620FFF7D3FE00209B
:1038C000FFF7C0FE6020FFF7BDFE3620FFF7CAFEFF
:1038D0008820FFF7B7FE3A20FFF7C4FE0520FFF768
:1038E000B1FE9020FFF7BEFE0820FFF7ABFE0820D8
:1038F000FFF7A8FE0820FFF7A5FE0820FFF7A2FEAD
:10390000BD20FFF7AFFE0620FFF79CFEBC20FFF7AF
:10391000A9FE0020FFF796FEFF20FFF7A3FE602020
:10392000FFF790FE0120FFF78DFE0420FFF78AFECF
:10393000C320FFF797FE2F20FFF784FEC420FFF778
:1039400091FE2F20FFF77EFEC920FFF78BFE25207A
:10395000FFF778FEBE20FFF785FE1120FFF772FE0D
:10396000E120FFF77FFE1020FFF76CFE0E20FFF72F
:1039700069FEDF20FFF776FE2120FFF763FE1020AF
:10398000FFF760FE0220FFF75DFEF020FFF76AFE02
:103990004920FFF757FE0E20FFF754FE0920FFF7DE
:1039A00051FE0920FFF74EFE2520FFF74BFE2E208B
:1039B000FFF748FEF120FFF755FE4420FFF742FED7
:1039C0007020FFF73FFE7320FFF73CFE2F20FFF72C
:1039D00039FE3020FFF736FE6F20FFF733FEF2206E
:1039E000FFF740FE4920FFF72DFE0E20FFF72AFECD
:1039F0000920FFF727FE0920FFF724FE2520FFF707
:103A000021FE2E20FFF71EFEF320FFF72BFE4420A1
:103A1000FFF718FE7020FFF715FE7320FFF712FE68
:103A20002F20FFF70FFE3020FFF70CFE6F20FFF76F
:103A300009FEED20FFF716FE1B20FFF703FE8B208B
:103A4000FFF700FEAE20FFF70DFE7720FFF7FAFD2F
:103A5000CD20FFF707FE6320FFF7F4FDAC20FFF752
:103A600001FE2720FFF7EEFD7020FFF7FBFD07208A
:103A7000FFF7E8FD0720FFF7E5FD0420FFF7E2FD73
:103A80000620FFF7DFFD0F20FFF7DCFD0920FFF721
:103A9000D9FD0720FFF7D6FD0820FFF7D3FD03204F
:103AA000FFF7D0FDE820FFF7DDFD2420FFF7CAFD7A
:103AB0006020FFF7D7FD3820FFF7C4FD0B20FFF78C
:103AC000C1FD6D20FFF7BEFD6D20FFF7BBFD392066
:103AD000FFF7B8FDF020FFF7B5FD6D20FFF7B2FD51
:103AE0006D20FFF7AFFD6120FFF7BCFD3820FFF729
:103AF000A9FDF420FFF7A6FD6D20FFF7A3FD6D20C3
:103B0000FFF7A0FD3820FFF79DFDF720FFF79AFD96
:103B10006D20FFF797FD6D20FFF794FD6220FFF702
:103B2000A1FD3820FFF78EFD0D20FFF78BFD7120E2
:103B3000FFF788FDED20FFF785FD7020FFF782FD80
:103B40007020FFF77FFD3820FFF77CFD0F20FFF787
:103B500079FD7120FFF776FDEF20FFF773FD7020F0
:103B6000FFF770FD7020FFF76DFD6320FFF77AFD12
:103B70003820FFF767FD1120FFF764FD7120FFF784
:103B800061FDF120FFF75EFD7020FFF75BFD702007
:103B9000FFF758FD3820FFF755FD1320FFF752FDC2
:103BA0007120FFF74FFDF320FFF74CFD7020FFF76A
:103BB00049FD7020FFF746FD6420FFF753FD2820E4
:103BC000FFF740FD2920FFF73DFDF120FFF73AFD0B
:103BD0000120FFF737FDF120FFF734FD0020FFF74C
:103BE00031FD1A20FFF72EFD6620FFF73BFD3C203C
:103BF000FFF728FD0020FFF725FD982002E00000D8
:103C000000000240FFF71EFD1020FFF71BFD3220D1
:103C1000FFF718FD4520FFF715FD0120FFF712FD06
:103C20000020FFF70FFD0020FFF70CFD0020FFF73D
:103C300009FD6720FFF716FD0020FFF703FD3C207C
:103C4000FFF700FD0020FFF7FDFC0020FFF7FAFC66
:103C50000020FFF7F7FC1020FFF7F4FC5420FFF7DB
:103C6000F1FC6720FFF7EEFC4520FFF7EBFCCD20D1
:103C7000FFF7E8FC7420FFF7F5FC1020FFF7E2FCEB
:103C80008520FFF7DFFC8020FFF7DCFC0020FFF73A
:103C9000D9FC0020FFF7D6FC4E20FFF7D3FC002014
:103CA000FFF7D0FC9820FFF7DDFC3E20FFF7CAFCB1
:103CB0000720FFF7C7FC9920FFF7D4FC3E20FFF751
:103CC000C1FC0720FFF7BEFC3520FFF7CBFC21200D
:103CD000FFF7C8FC7820FDF72DF91120FFF7C2FC93
:103CE0004FF4A070FDF726F92920FFF7BBFC7820E0
:103CF000FDF720F92C20FFF7B5FC0020FFF752FC60
:103D0000002204210148FDF715FA10BD0000024011
:103D100008B500BF002000900A48006840F4800009
:103D2000084908600846006800F48000009000BF61
:103D300000BF002211463A20FDF790FA3A20FDF725
:103D400079FA08BD3038024000B587B0142102A8C6
:103D5000FCF719FC00BF002001904048006840F0CB
:103D600004003E4908600846006800F00400019025
:103D700000BF00BF00BF002001900846006840F06F
:103D8000800008600846006800F08000019000BFD5
:103D900000BF00BF002001900846006840F001000D
:103DA00008600846006800F00100019000BF00BFF5
:103DB00000BF002001900846006840F00200086043
:103DC0000846006800F00200019000BF00BF012219
:103DD00051032348FDF7AEF901221C212148FDF7CC
:103DE000A9F90122D0212048FDF7A4F94FF4005091
:103DF00002900120039004900020059002A9184829
:103E0000FDF7ACF8012002900020039001200490FF
:103E100002A91448FDF7A2F81C200290012003908B
:103E200004900320059002A90E48FDF797F8D020D2
:103E300002900120039004900320059002A90A48F3
:103E4000FDF78CF82020029000200390049002A936
:103E50000548FDF783F807B000BD00003038024088
:103E600000080240000002400004024010B50E4865
:103E70000E4908604FF48270486000210B48816051
:103E8000C160016141614FF4007181610021C16134
:103E90000162416281620A21C162FEF7E9FC08B158
:103EA000FCF734FE10BD000000300140400100204E
:103EB00000B58DB0002009900A900B900C900790EF
:103EC00008901C216846FCF75EFB4FF080401F49BC
:103ED00008605F20486000211C4881606321C16048
:103EE0000021016180218161FEF786FE08B1FCF7A7
:103EF0000DFE4FF48050099009A91448FEF7C8FE42
:103F000008B1FCF703FE1148FEF7F8FF08B1FCF713
:103F1000FDFD00200790089007A90C48FEF71EFE43
:103F200008B1FCF7F3FD60200090002001900290A2
:103F30000490042269460548FEF75EFF08B1FCF7CD
:103F4000E5FD0248FEF72AFF0DB000BDF801002094
:103F500010B500220F49104801F0F6FA08B1FCF73D
:103F6000D5FD0E490C4801F04BFD08B1FCF7CEFD24
:103F70000B49094800F0A2FF08B1FCF7C7FD06484D
:103F800001F014FE002803D0BDE81040FCF7BEBDD0
:103F900010BD00004C0000208025012008010020F9
:103FA0009C00002000BFFEE700BFFEE710B50248FE
:103FB000FDF760FB10BD00007C3C01202DE9F047BF
:103FC00004460D4626683746D6F8408007F530602F
:103FD00000EB4510D0F80890104880450BD909F443
:103FE0000040B0F5004F06D14FF4004107F53060B6
:103FF00000EB451081602046FDF7CFFF0748804564
:1040000008D9A079012805D104F29C420121206839
:1040100002F02AFA0020BDE8F08700000A30544F71
:104020002DE9F04705460C46D5F800904E46D9F8E4
:1040300040A006F5306000EB4410D0F80880A87965
:10404000012855D108F0080008280FD143488245BF
:104050000BD908F40040B0F5004F7BD14FF400417C
:1040600006F5306000EB4410816073E008F020003A
:10407000202806D1202106F5306000EB4410816035
:1040800068E008F02800002864D1344882450CD943
:1040900008F40040B0F5004F07D14FF4004106F599
:1040A000306000EB4410816054E004EBC40105F57E
:1040B000157000EB810706F5306000EB4410396A9B
:1040C0000069C0F31200081A786164B9386930B920
:1040D00005F29C420121286802F0C6F903E07969E3
:1040E000F8680844F860E1B22846FDF743F931E08A
:1040F0001B4882451BD108F40040B0F5004F07D1A2
:104100004FF4004106F5306000EB4410816021E07F
:1041100008F02000202805D1202106F5306000EBB2
:1041200044108160E1B22846FDF724F912E06CB931
:1041300004EBC40105F5157000EB8100006928B996
:1041400005F29C420021286802F08EF9E1B228466F
:10415000FDF710F90020BDE8F08700000A30544F49
:104160000A31544F2DE9F84F07460E46D7F8009014
:10417000C84606EBC60107F1140000EB8104D4E940
:104180000410884202D90120BDE8F88FD4E9040167
:10419000451AA068A84200D2A568E81C4FEA900A18
:1041A00017E0D4E90401451AA068A84200D2A56826
:1041B000E81C4FEA900AB879ABB2F2B200904846D8
:1041C000E16802F019FEE0682844E0606069284474
:1041D000606108F5106000EB4610806980B25045C0
:1041E00006D3D4E90410884202D220690028D8D12D
:1041F000D4E9040188420ED806F00F01012000FA2C
:1042000001FB40F6340050F8080020EA0B0040F6AD
:10421000340141F808000020B6E7704710B50248A5
:10422000FEF778FA10BD00004001002070B5054689
:10423000AC6B0020E087E0862046FEF761FA70BD97
:1042400070B50546AC6B2068406820F0030021681B
:104250004860606D40F010006065012084F85100F6
:104260002046FEF74DFA70BD70B50446A56B284692
:10427000FEF758FC70BDF8B50546AC6BFCF760FF67
:1042800006462868006800F48070B0F5807F2DD065
:104290002068406820F0200021684860206840685D
:1042A00020F002002168486032466421204600F078
:1042B00023F818B1606D40F020006065A06850B927
:1042C00000BF002000902068C068009020688068CF
:1042D000009000BF00BF0020E086012084F851005C
:1042E000606D18B12046FEF70BFAF8BD2046FEF7C8
:1042F0000FFC00BFF9E700007CB504460E461546EA
:104300003346012202212046009500F04DF828B1E5
:10431000606D40F02000606503207CBD1648006899
:104320001821B0FBF1F01549B0FBF1F04FF47A71B0
:10433000484301906068B0F5827F0DD1334600227A
:1043400080212046009500F02FF898B1606D40F074
:10435000200060650320E0E700BF019800B908E095
:104360000198401E019020688068C0F3C0100028AA
:10437000F3D100BF0020D0E74800002040420F00EA
:104380000749097802290ADA0121017104490A78EA
:104390000978491C024B1970024941F82200704704
:1043A00018000020100000202DE9F84F04460D46AB
:1043B00090461E46DDF82890FCF7C2FEA0EB0900EF
:1043C000371AFCF7BDFE82462C480068C0F3CB309C
:1043D0007843009046E0701C002843D0FCF7B0FE04
:1043E000A0EB0A00B84200D2A7BB2068406820F0CA
:1043F000E000216848606068B0F5827F0DD1A06858
:10440000B0F5004F03D0A068B0F5806F05D12068EB
:10441000006820F0400021680860A06AB0F5005FE5
:104420000DD100BF2068006820F4005021680860AA
:104430002068006840F400502168086000BF012037
:1044400084F8510000BF002084F8500000BF032012
:10445000BDE8F88FFFE7009808B9002702E0009850
:10446000401E0090206880682840A84201D10120A9
:1044700000E000204045AED10020E9E748000020E0
:1044800070B504460E46154600BF20790028FCD0C2
:1044900000202071AAB231462068FEF7BBFA08B1AD
:1044A0000120207170BD704710B5FCF74FFE10BDA4
:1044B00000B593B0302107A8FCF765F8142102A8D5
:1044C000FCF761F800BF002001902348006840F02D
:1044D0008050214908600846006800F08050019033
:1044E00000BF00BF00BF002001901C48006840F4DE
:1044F00040401A4908600846006800F440400190B6
:1045000000BF00BF012007900004089002200D901A
:1045100041050E9119210F91C02110910221119195
:104520000421129107A8FDF79DFE08B1FCF7EEFAF1
:104530000F20029002200390002004904FF480503E
:10454000059000200690032102A8FDF76BFD08B13D
:10455000FCF7DCFA13B000BD4038024000700040A8
:104560000348006840F4700001490860704700008B
:1045700088ED00E010B50268224B98420BD0B0F1F4
:10458000804F08D0204B984205D0204B984202D053
:104590001F4B984203D122F070024B681A43194B0B
:1045A000984214D0B0F1804F11D0174B98420ED0E2
:1045B000164B98420BD0164B984208D0154B984298
:1045C00005D0154B984202D0144B984203D122F4E7
:1045D0004072CB681A4322F080034C6943EA04021C
:1045E0008B68C3620B688362064B984201D10B69EA
:1045F0000363036843F00403036001234361026023
:1046000010BD000000000140000400400008004010
:10461000000C0040004001400044014000480140BF
:1046200030B501F01F05012404FA05F3046A9C4328
:104630000462046A01F01F0502FA05F52C430462C6
:1046400030BD30B50C46816821F47F4142EA032534
:1046500025432943816030BD0A46816821F07001FD
:1046600042F00703194381607047000030B5026AC9
:10467000056A25F0010505624368846924F0700429
:1046800024F003040D682C4322F002028D682A43B3
:104690000D4DA84206D100BF22F00802CD682A4382
:1046A00022F00402084DA84207D123F4807323F4BA
:1046B00000734D692B438D692B43436084614D68C2
:1046C0004563026230BD00000000014030B5026A5F
:1046D000056A25F0100505624368846924F4E04406
:1046E00024F440740D6844EA052422F020028D6809
:1046F00042EA05120E4DA84207D100BF22F0800207
:10470000CD6842EA051222F04002094DA84209D1C3
:1047100023F4806323F400634D6943EA85038D69C4
:1047200043EA8503436084614D688563026230BD5E
:104730000000014030B5026A056A25F48075056203
:104740004368C46924F0700424F003040D682C430A
:1047500022F400728D6842EA05220F4DA84207D16B
:1047600000BF22F40062CD6842EA052222F4806292
:10477000094DA84209D123F4805323F400534D6915
:1047800043EA05138D6943EA05134360C4614D682C
:10479000C563026230BD00000000014030B5036A0D
:1047A000056A25F4805505624468C26922F4E04236
:1047B00022F440720D6842EA052223F400538D680A
:1047C00043EA0533064DA84204D124F480444D69E0
:1047D00044EA85144460C2614D680564036230BDDB
:1047E0000000014030B50B461446026A056A25F008
:1047F00001050562816921F0F00141EA041122F00E
:104800000A021A438161026230BD30B50B4614467C
:10481000026A056A25F010050562816921F470417C
:1048200041EA043122F0A00242EA031281610262ED
:1048300030BD000010B5002240210F48FCF77AFC83
:1048400000F02CF9012002F05DFB002280210A48D3
:10485000FCF770FC012002F055FB012240210648C4
:10486000FCF768FC012002F04DFB002240210248C9
:10487000FCF760FC10BD00000004024010B50122EE
:1048800040210448FCF756FC012280210148FCF736
:1048900051FC10BD0004024010B5002240210F4819
:1048A000FCF748FC00F0FAF8012002F02BFB012293
:1048B00080210A48FCF73EFC012002F023FB012284
:1048C00040210648FCF736FC012002F01BFB0022C9
:1048D00040210248FCF72EFC10BD000000040240FD
:1048E00070B50546002400F0C5F8012002F00AFB6F
:1048F000002617E0002240210F48FCF71BFC012096
:1049000002F000FB012240210B48FCF713FC60067B
:10491000040E80210848FCF705FC08B1601CC4B2F5
:10492000701CC6B2082EE5DB15B9FFF7B5FF01E034
:10493000FFF780FF204670BD0004024070B50446BA
:1049400000F0ACF8002240211548FCF7F3FB0120F1
:1049500002F0D8FA002520E0E00928B101228021E8
:104960000F48FCF7E7FB04E0002280210C48FCF72D
:10497000E1FB6006040E012240210948FCF7DAFB46
:10498000012002F0BFFA002240210548FCF7D2FBCB
:10499000012002F0B7FA681CC5B2082DDCDB70BD3F
:1049A0000004024010B500F079F8012280210C4883
:1049B000FCF7C0FB012240210948FCF7BBFB0120AA
:1049C00002F0A0FA002280210548FCF7B3FB012089
:1049D00002F098FA002240210148FCF7ABFB10BD21
:1049E0000004024010B500F059F8012240210A48A5
:1049F000FCF7A0FB012002F085FA00228021064886
:104A0000FCF798FB012002F07DFA01228021024888
:104A1000FCF790FB10BD00000004024010B500241C
:104A200000F028F8012280211148FCF783FB0122C5
:104A300040210F48FCF77EFB012002F063FA0AE0F8
:104A4000601CC4B2FA2C03DDFFF7CCFF012010BDBF
:104A5000012002F057FA80210548FCF763FB00288B
:104A6000EED1002240210248FCF764FB0020EEE773
:104A70000004024000B585B014216846FBF783FDB1
:104A80008020009000200190012002906946024899
:104A9000FCF764FA05B000BD0004024000B585B023
:104AA00014216846FBF76FFD8020009001200190E3
:104AB000029069460248FCF751FA05B000BD0000BB
:104AC0000004024070B5D0F8C822D0F8D43200EB10
:104AD0008303D3F8C032002B28D001F00F0C0CEB6D
:104AE0008C0400EB840500266C6954B10CEBCC0CF3
:104AF00002EB8C02D2F81CC0B4FBFCF20CFB12429D
:104B0000B2B1C3F81462D0F8D42200EB8200D0F81E
:104B1000C402D0F810C0BCF1000F05D00A4603F55E
:104B20000471D3F80802E047002070BD032070BD77
:104B30006E6100231A4600F041FFF5E770B50446A8
:104B4000D4F8D40204EB8000D0F8C052002D12D06B
:104B5000204600F00AFEC5F80C02D4F8D412D5F8AD
:104B6000040204EB8101D1F8C412CA6805F503718F
:104B70009047002070BD032070BD000070B5044652
:104B8000234D2046297800F0FCFC2878002600F010
:104B90000F0000EB800004EB800080F82360697850
:104BA000204600F0EEFC687800F00F0000EB80007B
:104BB00004EB800080F86361A978204600F0E1FCF6
:104BC000A87800F00F0000EB800004EB800080F874
:104BD0002360C661D4F8D40204EB8000D0F8C01280
:104BE00099B1D0F8C40240688047D4F8D40204EBED
:104BF0008000D0F8C00201F077F9D4F8D40204EBB9
:104C00008000C0F8C062C4F8BC62002070BD000023
:104C1000B400002010B5D0F8D41200EB8100D0F819
:104C2000C042002C10D0D0F8C41259B194F8000240
:104C3000FF2807D08B6894F8012221469847FF206F
:104C400084F80002002010BD032010BD0A2101805D
:104C500000487047B800002070B5064682210C4815
:104C600000F0E8FB05460121094800F0E3FB04469B
:104C70008121074800F0DEFB0DB11021A971402110
:104C800004B1A18000B1818043203080004870BD14
:104C9000C400002070B5064682210D4800F0CAFB12
:104CA000054601210A4800F0C5FB04468121084859
:104CB00000F0C0FB0DB11021A9714FF4007104B1D7
:104CC000A18000B1818043203080014870BD000088
:104CD000C400002070B5064682210C4800F0AAFBF3
:104CE00005460121094800F0A5FB0446812107483B
:104CF00000F0A0FB0DB11021A971402104B1A180E9
:104D000000B1818043203080004870BDC400002085
:104D10002DE9F04704464FF4077001F0E7F8054627
:104D20004FF00008002D65D04FF407712846FBF7BF
:104D30002AFCD4F8D40204EB8000C0F8C052C4F8B6
:104D4000BC52207C01274A4E4FF0100900285AD04F
:104D5000402302223178204600F076FD307800F0C2
:104D60000F0000EB800004EB800080F823704023EC
:104D700002227178204600F067FD707800F00F0085
:104D800000EB800004EB800080F86371B07800F0E5
:104D90000F0000EB800004EB8000C0F81C9008239B
:104DA0000322B178204600F04FFDB07800F00F00EC
:104DB00000EB800004EB800080F82370C5F80482CB
:104DC000D4F8D40204EB8000D0F8C4020068804715
:104DD000C5F81482C5F81882D5F80422002A3DD0FF
:104DE000207CD0B340237178204600F039FD0020AC
:104DF000BDE8F087D4F8D40204EB8000C0F8C0828C
:104E00000220BDE8F0874FF400730222317820467B
:104E100000F01AFD307800F00F0000EB800004EB8A
:104E2000800080F823704FF40073022271782046CE
:104E300000F00AFD707800F00F0000EB800004EB3A
:104E4000800080F86371B07800F00F0000EB800004
:104E500004EB8000C0F81C90A1E702E00220BDE84E
:104E6000F0874FF400737178204600F0F9FCBEE73C
:104E7000B400002010B5D0F8D41200EB8101D1F8B5
:104E8000C01200290CD0027CDFF82CC052B1D1F83E
:104E9000042240239CF8011000F0E2FC002010BD29
:104EA000032010BDD1F804224FF400739CF80110C8
:104EB00000F0D6FCF2E70000B4000020002907D083
:104EC000D0F8D42200EB8200C0F8C4120020704752
:104ED00003207047D0F8D42200EB8200D0F8C00243
:104EE000002803D0C0F80412002070470320704748
:104EF000D0F8D43200EB8300D0F8C002002805D0EF
:104F0000C0F80812C0F81022002070470320704734
:104F1000F0B583B006460C46D6F8D40206EB800006
:104F2000D0F8C0720021029101910025002F0DD010
:104F3000217811F060023BD0202A0AD02146304669
:104F400000F0C9F8032503B02846F0BD03B00320E4
:104F5000F0BDE28812B311F0800F10D0D0F8C40277
:104F600094F801C03946836860469847E288072A6A
:104F700000D907223946304600F0D5F8E3E76078DB
:104F800087F80002E088402800D34020C2B287F8AA
:104F900001223946304600F0AAF8D4E7D0F8C4021E
:104FA00094F801C000228368214660469847CAE70A
:104FB000607858B10128C6D00A2817D00B2825D010
:104FC0002146304600F087F80325BCE796F89C029E
:104FD000032805D02146304600F07DF80325B2E7CE
:104FE000022201A9304600F09EF8ACE796F89C0238
:104FF000032805D02146304600F06DF80325A2E7CE
:10500000012202A9304600F08EF89CE796F89C0237
:10501000032898D02146304600F05DF8032592E73A
:1050200010B5D0F8D41200EB8101D1F8C0220121D3
:10503000002A03D0D2F8143213B117E0032010BDB8
:105040000121C2F814120A49D2F810C2097801F0FD
:105050000F0303EB830300EB8303C3F814C0D2F800
:105060001032D2F8082200F0A9FC0021084610BD39
:10507000B400002010B50024D0F8B8225268904740
:1050800000B10324204610BD90F89C22012A05D0CF
:10509000022A03D0032A01D000F01DB84988012953
:1050A00004D10021C0F8A41200F04BB870470020D2
:1050B00070470020704710B513460A46002100F0E3
:1050C000CFFB002010BD10B513460A46002100F0AA
:1050D00075FC002010BD10B504468021204600F06C
:1050E0004EFC2046BDE81040002100F048BC10B541
:1050F0000323C0F89432C0F85421C0F86411C0F8FA
:10510000582113460A46002100F0AAFB002010BDDA
:1051100010B50521C0F8941200231A46194600F074
:105120009FFB002010BD10B50223C0F894324261ED
:105130004162826113460A46002100F03FFC0020D4
:1051400010BD10B50421C0F8941200231A46194668
:1051500000F034FC002010BD10B5002806D00A462F
:10516000054906A000F0B2F9034810BD0A460249FD
:1051700002A000F0ABF9F7E75C280120434443208C
:10518000436F6E6669670000122008800048704710
:105190006C00002010B5002806D00A46054906A07C
:1051A00000F094F9034810BD0A46024902A000F03D
:1051B0008DF9F7E75C28012043444320496E74656C
:1051C0007266616365000000042008800048704733
:1051D0006800002010B50A46024903A000F076F9E5
:1051E000004810BD5C28012053544D6963726F65FF
:1051F0006C656374726F6E696373000010B500288C
:1052000006D00A46054906A000F060F9034810BD23
:105210000A46024902A000F059F9F7E75C2801208C
:1052200053544D3332205669727475616C20436F4C
:105230006D506F727400000010B51A200880FBF7E3
:1052400069FC014810BD000080000020CA88012AC6
:1052500001D0FFF740BF90F89C22012A05D0022A16
:1052600003D0032A08D0FFF736BF00218160012256
:1052700000F10801FFF757BF0122011DFFF753BFDF
:105280002DE9F84304460F46002000900026002533
:105290007888010A082970D2DFE801F0AB040C22FB
:1052A000ABAB8B9AD4F8B412207C0A68694690475D
:1052B0000646A3E0207C4FF0020840B1D4F8B802C3
:1052C000C16A68468847064686F8018096E0D4F8A9
:1052D000B802816A68468847064686F801808DE0F4
:1052E000C0B206285FD2DFE800F0031221303F4F42
:1052F000D4F8B402426822B1207C69469047064641
:105300007CE039462046FFF7E6FE012576E0D4F83A
:10531000B402826822B1207C6946904706466DE05F
:1053200039462046FFF7D7FE012567E0D4F8B402DE
:10533000C26822B1207C6946904706465EE0394645
:105340002046FFF7C8FE012558E0D4F8B4020269F0
:1053500022B1207C6946904706464FE039462046F8
:10536000FFF7B9FE012549E0D4F8B40242692AB139
:10537000207C69469047064640E03AE039462046A0
:10538000FFF7A9FE012539E0D4F8B402826922B101
:10539000207C69469047064630E039462046FFF7B4
:1053A0009AFE01252AE039462046FFF794FE0125A2
:1053B00024E0207C28B139462046FFF78CFE0125E9
:1053C0001CE0D4F8B802416B68468847064615E0F1
:1053D000207C28B139462046FFF77DFE01250DE0EF
:1053E000D4F8B802016B68468847064607217170F9
:1053F00004E039462046FFF76EFE0125002D0CD152
:10540000FA8892B1BDF8000048B1824200D9024644
:10541000009231462046FFF786FEBDE8F883394604
:105420002046FFF758FEBDE8F8832046FFF789FEC7
:10543000BDE8F88378B50E46054600246A882978C9
:1054400028468A4212D900918A420FD9694600F053
:105450001BF84178052904D10446A178B14205D052
:1054600000246988BDF800209142EFD8204678BD1D
:1054700000210278002A05D0491CC9B2401C0278DC
:10548000002AF9D1084670470A8803781A440A802E
:1054900001780844704790F89C22012A05D0022A1E
:1054A00003D0032A01D0FFF716BECA88022A01D012
:1054B000FFF711BE0121C160D0F8A41209B1032188
:1054C000C160022200F10C01FFF72DBE70B50D4640
:1054D0001646002825D004462046FFF7C9FF0221C2
:1054E00001EB4000B0F5007F01D9080204E020463E
:1054F000FFF7BEFF4000801C30803078287003200A
:1055000068700220217800290BD0002122782A54CB
:10551000641C401CC0B22954401CC0B22278002A2E
:10552000F4D170BD01460020002906D0012905D024
:10553000022905D0032905D00320704703207047B6
:10554000012070470320704700280FD00023C0F8C7
:10555000B832C0F8C432C0F8D03209B1C0F8B412C1
:10556000012180F89C12027000F004B903207047FA
:1055700010B5D0F8C802FBF761FFBDE81040FFF797
:10558000D1BF10B5D0F8C802FBF723FFBDE810402B
:10559000FFF7C8BF70B504460B46002B09D043F097
:1055A00080012046FFF783FDFF2862D0002850D0FD
:1055B0005FE004F11400D4F89412002502293FD1D1
:1055C000818942688A4210D9511A416082890169F1
:1055D0001144016142682046FFF775FD00231A4619
:1055E0001946204600F03CF92AE0914214D10068A7
:1055F000884211D3D4F8981288420DD20022114665
:105600002046FFF760FDC4F8985200231A46194659
:10561000204600F025F913E094F89C02032808D1F5
:10562000D4F8B802C16821B1C4F8D452C168204688
:1056300088478021204600F0A2F92046FFF768FD48
:1056400094F8A00220B1204600F0F7F984F8A052A7
:105650000FE094F89C1203290BD1D4F8B8225169B9
:1056600039B1C4F8D402526919462046904700283F
:1056700000D1002070BD70B504460B460025002BFC
:1056800009D003F07F012046FFF711FDFF2858D015
:10569000002844D055E004F5AA70D4F894120329E8
:1056A0004FD1818942688A420ED9511A416082895C
:1056B00001691144016142688089824200D8024632
:1056C0002046FFF7F8FC3CE094F8AA0210F01F0017
:1056D00006D0012806D002280AD0002070B11AE0B6
:1056E0000020FBE794F8AE122046FFF7E2FCF5E756
:1056F00094F8AE122046FFF7DAFCEFE794F89C121C
:10570000032908D1D4F8B8120A6922B1C4F8D40226
:105710000969204688472046FFF713FD11E094F8F9
:105720009C1203290AD1D4F8B822916931B1C4F886
:10573000D402926919462046904705460DB1284685
:1057400070BD002070BD0020704710B500240121FD
:1057500080F89C12D0F8B822002A04D0526801794F
:10576000904700B10324204610BDD0F8C802FBF7D3
:10577000A3BE000010B50178002927D11449C1F853
:10578000E004C0F8C8124FF0A0400860042008717F
:105790000222CA71002088714A728872C872087326
:1057A0008873C8730846FCF7D2FA08B1FBF7AEF964
:1057B00080210748FBF7A5FD402200210448FBF7A4
:1057C000A5FD802201210248FBF7A0FD002010BDAD
:1057D0007C3C012011F0800F01F07F01D0F8C8025D
:1057E00001EBC10100EB810001D0807D704790F892
:1057F0005602704710B5D0F8D42200EB8202D2F8DE
:10580000B822002A04D090F89C32032B02D004E086
:10581000032010BD126A02B19047002010BD10B5E0
:10582000D0F8D42200EB8202D2F8B822002A04D0A9
:1058300090F89C32032B02D004E0032010BD526A82
:1058400002B19047002010BD10B59C461346D0F819
:10585000C8026246FBF73BFEBDE81040FFF762BEA0
:1058600010B5D0F8C802FBF779FEBDE81040FFF78D
:1058700059BE2DE9F04104460025012684F89C62BA
:105880000020C4F894026060C4F8A40284F8A00266
:10589000D4F8B802002806D0426822B10021204680
:1058A000904700B103250022402311462046FFF710
:1058B000CBFF84F863614027A4F860714023002285
:1058C00080212046FFF7C0FF84F823602784284604
:1058D000BDE8F08190F89C12042903D190F89D1244
:1058E00080F89C120020704710B590F89C12032994
:1058F00005D1D0F8B81211B1C96901B188470020AB
:1059000010BD01740020704710B5D0F8C802FCF734
:105910002AFBBDE81040FFF705BE10B5044604F2AF
:10592000AA2000F054F80120C4F89402B4F8B002A0
:10593000C4F8980294F8AA1211F01F000AD00128A6
:105940000FD0022814D02046BDE8104001F080019D
:1059500000F015B804F2AA212046BDE8104000F07E
:1059600027B904F2AA212046BDE8104000F075BA1C
:1059700004F2AA212046BDE8104000F054B910B549
:10598000D0F8C802FBF70DFEBDE81040FFF7CABD16
:1059900010B5D0F8C802FCF707FBBDE81040FFF7D0
:1059A000C1BD90F89C12042903D090F89C1280F895
:1059B0009D12042180F89C120020704710B5D0F889
:1059C000C802FBF733FEBDE81040FFF7ABBD0A7815
:1059D0000270491C0A784270491C0A784B1C1B78DB
:1059E00042EA03224280891C0A784B1C1B7842EA57
:1059F000032282808A78C97842EA0121C1807047F7
:105A000038B5044600200090002914D0C4F8B8121C
:105A1000D4F8D40204EB8000D0F8B802C16A19B1FE
:105A200068468847C4F8D002D4F8D802401CC4F8AD
:105A3000D802002038BD032038BD0020704770B563
:105A400004468888002821D1C888F8B94888802869
:105A50001CD200F07F0594F89C0203280DD084F836
:105A60009E5229462046FFF74FFF2046FFF769FB6D
:105A700045B1022084F89C0270BD2046BDE870400C
:105A8000FFF729BB012084F89C0270BD2046BDE8C9
:105A90007040FFF720BB03460020D3F8B822002A4D
:105AA00002D0126818461047704700002DE9F041F7
:105AB00004460F460025334EB9783170012906D9C6
:105AC00039462046FFF707FB0320BDE8F08194F834
:105AD0009C024FF0020802280DD0032825D0394639
